{
  "address": "0x41126FfF4b633df275804DD11778b9f0BB5F0987",
  "abi": [
    {
      "inputs": [
        {
          "internalType": "address",
          "name": "_fundDeployer",
          "type": "address"
        },
        {
          "internalType": "address",
          "name": "_externalPositionFactory",
          "type": "address"
        },
        {
          "internalType": "address",
          "name": "_policyManager",
          "type": "address"
        }
      ],
      "stateMutability": "nonpayable",
      "type": "constructor"
    },
    {
      "anonymous": false,
      "inputs": [
        {
          "indexed": true,
          "internalType": "address",
          "name": "caller",
          "type": "address"
        },
        {
          "indexed": true,
          "internalType": "address",
          "name": "comptrollerProxy",
          "type": "address"
        },
        {
          "indexed": true,
          "internalType": "address",
          "name": "externalPosition",
          "type": "address"
        },
        {
          "indexed": false,
          "internalType": "uint256",
          "name": "actionId",
          "type": "uint256"
        },
        {
          "indexed": false,
          "internalType": "bytes",
          "name": "actionArgs",
          "type": "bytes"
        },
        {
          "indexed": false,
          "internalType": "address[]",
          "name": "assetsToTransfer",
          "type": "address[]"
        },
        {
          "indexed": false,
          "internalType": "uint256[]",
          "name": "amountsToTransfer",
          "type": "uint256[]"
        },
        {
          "indexed": false,
          "internalType": "address[]",
          "name": "assetsToReceive",
          "type": "address[]"
        }
      ],
      "name": "CallOnExternalPositionExecutedForFund",
      "type": "event"
    },
    {
      "anonymous": false,
      "inputs": [
        {
          "indexed": true,
          "internalType": "address",
          "name": "comptrollerProxy",
          "type": "address"
        },
        {
          "indexed": true,
          "internalType": "address",
          "name": "vaultProxy",
          "type": "address"
        },
        {
          "indexed": false,
          "internalType": "address",
          "name": "externalPosition",
          "type": "address"
        },
        {
          "indexed": true,
          "internalType": "uint256",
          "name": "externalPositionTypeId",
          "type": "uint256"
        },
        {
          "indexed": false,
          "internalType": "bytes",
          "name": "data",
          "type": "bytes"
        }
      ],
      "name": "ExternalPositionDeployedForFund",
      "type": "event"
    },
    {
      "anonymous": false,
      "inputs": [
        {
          "indexed": true,
          "internalType": "uint256",
          "name": "typeId",
          "type": "uint256"
        },
        {
          "indexed": false,
          "internalType": "address",
          "name": "lib",
          "type": "address"
        },
        {
          "indexed": false,
          "internalType": "address",
          "name": "parser",
          "type": "address"
        }
      ],
      "name": "ExternalPositionTypeInfoUpdated",
      "type": "event"
    },
    {
      "anonymous": false,
      "inputs": [
        {
          "indexed": true,
          "internalType": "address",
          "name": "comptrollerProxy",
          "type": "address"
        },
        {
          "indexed": true,
          "internalType": "address",
          "name": "vaultProxy",
          "type": "address"
        }
      ],
      "name": "ValidatedVaultProxySetForFund",
      "type": "event"
    },
    {
      "inputs": [
        {
          "internalType": "bool",
          "name": "",
          "type": "bool"
        }
      ],
      "name": "activateForFund",
      "outputs": [],
      "stateMutability": "nonpayable",
      "type": "function"
    },
    {
      "inputs": [],
      "name": "deactivateForFund",
      "outputs": [],
      "stateMutability": "nonpayable",
      "type": "function"
    },
    {
      "inputs": [],
      "name": "getExternalPositionFactory",
      "outputs": [
        {
          "internalType": "address",
          "name": "externalPositionFactory_",
          "type": "address"
        }
      ],
      "stateMutability": "view",
      "type": "function"
    },
    {
      "inputs": [
        {
          "internalType": "uint256",
          "name": "_typeId",
          "type": "uint256"
        }
      ],
      "name": "getExternalPositionLibForType",
      "outputs": [
        {
          "internalType": "address",
          "name": "lib_",
          "type": "address"
        }
      ],
      "stateMutability": "view",
      "type": "function"
    },
    {
      "inputs": [
        {
          "internalType": "uint256",
          "name": "_typeId",
          "type": "uint256"
        }
      ],
      "name": "getExternalPositionParserForType",
      "outputs": [
        {
          "internalType": "address",
          "name": "parser_",
          "type": "address"
        }
      ],
      "stateMutability": "view",
      "type": "function"
    },
    {
      "inputs": [],
      "name": "getFundDeployer",
      "outputs": [
        {
          "internalType": "address",
          "name": "fundDeployer_",
          "type": "address"
        }
      ],
      "stateMutability": "view",
      "type": "function"
    },
    {
      "inputs": [],
      "name": "getOwner",
      "outputs": [
        {
          "internalType": "address",
          "name": "owner_",
          "type": "address"
        }
      ],
      "stateMutability": "view",
      "type": "function"
    },
    {
      "inputs": [],
      "name": "getPolicyManager",
      "outputs": [
        {
          "internalType": "address",
          "name": "policyManager_",
          "type": "address"
        }
      ],
      "stateMutability": "view",
      "type": "function"
    },
    {
      "inputs": [
        {
          "internalType": "address",
          "name": "_comptrollerProxy",
          "type": "address"
        }
      ],
      "name": "getVaultProxyForFund",
      "outputs": [
        {
          "internalType": "address",
          "name": "vaultProxy_",
          "type": "address"
        }
      ],
      "stateMutability": "view",
      "type": "function"
    },
    {
      "inputs": [
        {
          "internalType": "address",
          "name": "_caller",
          "type": "address"
        },
        {
          "internalType": "uint256",
          "name": "_actionId",
          "type": "uint256"
        },
        {
          "internalType": "bytes",
          "name": "_callArgs",
          "type": "bytes"
        }
      ],
      "name": "receiveCallFromComptroller",
      "outputs": [],
      "stateMutability": "nonpayable",
      "type": "function"
    },
    {
      "inputs": [
        {
          "internalType": "address",
          "name": "_comptrollerProxy",
          "type": "address"
        },
        {
          "internalType": "address",
          "name": "_vaultProxy",
          "type": "address"
        },
        {
          "internalType": "bytes",
          "name": "",
          "type": "bytes"
        }
      ],
      "name": "setConfigForFund",
      "outputs": [],
      "stateMutability": "nonpayable",
      "type": "function"
    },
    {
      "inputs": [
        {
          "internalType": "uint256[]",
          "name": "_typeIds",
          "type": "uint256[]"
        },
        {
          "internalType": "address[]",
          "name": "_libs",
          "type": "address[]"
        },
        {
          "internalType": "address[]",
          "name": "_parsers",
          "type": "address[]"
        }
      ],
      "name": "updateExternalPositionTypesInfo",
      "outputs": [],
      "stateMutability": "nonpayable",
      "type": "function"
    }
  ],
  "transactionHash": "0x986da76258284102a4ec813aef7821c16eed6ebda3cd838f8f06e90db09dcb25",
  "args": [
    "0xd590Dc2e92ce061d941A7362F9DD92540679Ef8f",
    "0x8FE02b7599D788c4826C04bA9A16e1c72CdfE00d",
    "0x92AF075CCf78588eE15999F4Cbb27f980eB8FEA6"
  ],
  "numDeployments": 1,
  "solcInputHash": "ddc5045fde4ce39a48d0eb052f9d6752",
  "bytecode": "0x60e060405234801561001057600080fd5b506040516125553803806125558339818101604052606081101561003357600080fd5b50805160208201516040909201516001600160601b0319606092831b811660805292821b831660a052901b1660c05260805160601c60a05160601c60c05160601c6124b46100a160003980610aa252508061098f52806110e25250806109f25280610a7c52506124b46000f3fe608060405234801561001057600080fd5b50600436106100b45760003560e01c806380d570631161007157806380d5706314610367578063893d20e81461038657806397c0ac871461038e578063bd8e959a14610396578063d44ad6cb1461039e578063f067cc11146103a6576100b4565b80631bee801e146100b9578063467903461461013e5780634c68a8dc14610180578063634ac96d1461032557806375d8bb0e1461032d5780637c65c1141461034a575b600080fd5b61013c600480360360608110156100cf57600080fd5b6001600160a01b0382351691602081013591810190606081016040820135600160201b8111156100fe57600080fd5b82018360208201111561011057600080fd5b803590602001918460018302840111600160201b8311171561013157600080fd5b50909250905061042d565b005b6101646004803603602081101561015457600080fd5b50356001600160a01b03166106bc565b604080516001600160a01b039092168252519081900360200190f35b61013c6004803603606081101561019657600080fd5b810190602081018135600160201b8111156101b057600080fd5b8201836020820111156101c257600080fd5b803590602001918460208302840111600160201b831117156101e357600080fd5b9190808060200260200160405190810160405280939291908181526020018383602002808284376000920191909152509295949360208101935035915050600160201b81111561023257600080fd5b82018360208201111561024457600080fd5b803590602001918460208302840111600160201b8311171561026557600080fd5b9190808060200260200160405190810160405280939291908181526020018383602002808284376000920191909152509295949360208101935035915050600160201b8111156102b457600080fd5b8201836020820111156102c657600080fd5b803590602001918460208302840111600160201b831117156102e757600080fd5b9190808060200260200160405190810160405280939291908181526020018383602002808284376000920191909152509295506106da945050505050565b61016461098d565b6101646004803603602081101561034357600080fd5b50356109b1565b6101646004803603602081101561036057600080fd5b50356109d0565b61013c6004803603602081101561037d57600080fd5b503515156109eb565b6101646109ee565b610164610a7a565b61013c610a9e565b610164610aa0565b61013c600480360360608110156103bc57600080fd5b6001600160a01b038235811692602081013590911691810190606081016040820135600160201b8111156103ef57600080fd5b82018360208201111561040157600080fd5b803590602001918460018302840111600160201b8311171561042257600080fd5b509092509050610ac4565b336000610439826106bc565b90506001600160a01b0381166104805760405162461bcd60e51b815260040180806020018281038252602d815260200180612423602d913960400191505060405180910390fd5b806001600160a01b031663714ca2d1876040518263ffffffff1660e01b815260040180826001600160a01b0316815260200191505060206040518083038186803b1580156104cd57600080fd5b505afa1580156104e1573d6000803e3d6000fd5b505050506040513d60208110156104f757600080fd5b50516105345760405162461bcd60e51b815260040180806020018281038252602881526020018061232b6028913960400191505060405180910390fd5b846105805761057b86838387878080601f016020809104026020016040519081016040528093929190818152602001838380828437600092019190915250610b2592505050565b6106b4565b60018514156105e85760008060606105cd87878080601f01602080910402602001604051908101604052809392919081815260200183838082843760009201919091525061130e92505050565b9250925092506105e089868585856113ee565b5050506106b4565b60028514156106325761057b868386868080601f016020809104026020016040519081016040528093929190818152602001838380828437600092019190915250611cf092505050565b600385141561067d5761057b86838387878080601f016020809104026020016040519081016040528093929190818152602001838380828437600092019190915250611e1592505050565b60405162461bcd60e51b815260040180806020018281038252602d8152602001806122af602d913960400191505060405180910390fd5b505050505050565b6001600160a01b039081166000908152602081905260409020541690565b6106e26109ee565b6001600160a01b0316336001600160a01b0316146107315760405162461bcd60e51b81526004018080602001828103825260498152602001806122666049913960600191505060405180910390fd5b80518351148015610743575080518251145b61077e5760405162461bcd60e51b815260040180806020018281038252602f815260200180612450602f913960400191505060405180910390fd5b60005b83518110156109875761079261098d565b6001600160a01b0316633825abe86040518163ffffffff1660e01b815260040160206040518083038186803b1580156107ca57600080fd5b505afa1580156107de573d6000803e3d6000fd5b505050506040513d60208110156107f457600080fd5b5051845185908390811061080457fe5b6020026020010151106108485760405162461bcd60e51b81526004018080602001828103825260348152602001806123536034913960400191505060405180910390fd5b604051806040016040528083838151811061085f57fe5b60200260200101516001600160a01b0316815260200184838151811061088157fe5b60200260200101516001600160a01b0316815250600160008684815181106108a557fe5b602090810291909101810151825281810192909252604001600020825181546001600160a01b03199081166001600160a01b039283161783559390920151600190910180549093169116179055835184908290811061090057fe5b60200260200101517f14f0f52379e27a06185de7281205c2496464cf539a6dcc46258cc6cebe89dc3084838151811061093557fe5b602002602001015184848151811061094957fe5b602002602001015160405180836001600160a01b03168152602001826001600160a01b031681526020019250505060405180910390a2600101610781565b50505050565b7f000000000000000000000000000000000000000000000000000000000000000090565b600090815260016020819052604090912001546001600160a01b031690565b6000908152600160205260409020546001600160a01b031690565b50565b60007f00000000000000000000000000000000000000000000000000000000000000006001600160a01b031663893d20e86040518163ffffffff1660e01b815260040160206040518083038186803b158015610a4957600080fd5b505afa158015610a5d573d6000803e3d6000fd5b505050506040513d6020811015610a7357600080fd5b5051905090565b7f000000000000000000000000000000000000000000000000000000000000000090565b565b7f000000000000000000000000000000000000000000000000000000000000000090565b610acc610a7a565b6001600160a01b0316336001600160a01b031614610b1b5760405162461bcd60e51b81526004018080602001828103825260288152602001806123876028913960400191505060405180910390fd5b61098784846120b0565b6000606080838060200190516060811015610b3f57600080fd5b815160208301805160405192949293830192919084600160201b821115610b6557600080fd5b908301906020820185811115610b7a57600080fd5b8251600160201b811182820188101715610b9357600080fd5b82525081516020918201929091019080838360005b83811015610bc0578181015183820152602001610ba8565b50505050905090810190601f168015610bed5780820380516001836020036101000a031916815260200191505b5060405260200180516040519392919084600160201b821115610c0f57600080fd5b908301906020820185811115610c2457600080fd5b8251600160201b811182820188101715610c3d57600080fd5b82525081516020918201929091019080838360005b83811015610c6a578181015183820152602001610c52565b50505050905090810190601f168015610c975780820380516001836020036101000a031916815260200191505b506040525050509250925092506000610caf846109d0565b90506001600160a01b038116610cf65760405162461bcd60e51b81526004018080602001828103825260288152602001806123af6028913960400191505060405180910390fd5b610cfe610aa0565b6001600160a01b0316630442bad58860068b888860405160200180846001600160a01b0316815260200183815260200180602001828103825283818151815260200191508051906020019080838360005b83811015610d67578181015183820152602001610d4f565b50505050905090810190601f168015610d945780820380516001836020036101000a031916815260200191505b509450505050506040516020818303038152906040526040518463ffffffff1660e01b815260040180846001600160a01b03168152602001836009811115610dd857fe5b815260200180602001828103825283818151815260200191508051906020019080838360005b83811015610e16578181015183820152602001610dfe565b50505050905090810190601f168015610e435780820380516001836020036101000a031916815260200191505b50945050505050600060405180830381600087803b158015610e6457600080fd5b505af1158015610e78573d6000803e3d6000fd5b505050506060816001600160a01b031663db16c72e88866040518363ffffffff1660e01b815260040180836001600160a01b0316815260200180602001828103825283818151815260200191508051906020019080838360005b83811015610eea578181015183820152602001610ed2565b50505050905090810190601f168015610f175780820380516001836020036101000a031916815260200191505b509350505050600060405180830381600087803b158015610f3757600080fd5b505af1158015610f4b573d6000803e3d6000fd5b505050506040513d6000823e601f3d908101601f191682016040526020811015610f7457600080fd5b8101908080516040519392919084600160201b821115610f9357600080fd5b908301906020820185811115610fa857600080fd5b8251600160201b811182820188101715610fc157600080fd5b82525081516020918201929091019080838360005b83811015610fee578181015183820152602001610fd6565b50505050905090810190601f16801561101b5780820380516001836020036101000a031916815260200191505b5060405250505090506060634ddf47d460e01b826040516024018080602001828103825283818151815260200191508051906020019080838360005b8381101561106f578181015183820152602001611057565b50505050905090810190601f16801561109c5780820380516001836020036101000a031916815260200191505b5060408051601f198184030181529190526020810180516001600160e01b03166001600160e01b0319909616959095179094525091925060009150506001600160a01b037f00000000000000000000000000000000000000000000000000000000000000001663f908bc778a89611112816109b1565b866040518563ffffffff1660e01b815260040180856001600160a01b03168152602001848152602001836001600160a01b0316815260200180602001828103825283818151815260200191508051906020019080838360005b8381101561118357818101518382015260200161116b565b50505050905090810190601f1680156111b05780820380516001836020036101000a031916815260200191505b5095505050505050602060405180830381600087803b1580156111d257600080fd5b505af11580156111e6573d6000803e3d6000fd5b505050506040513d60208110156111fc57600080fd5b8101908080519060200190929190505050905086896001600160a01b03168b6001600160a01b03167fc3b9bcc16acc2ee56104cb9a5d736ade0f1446a66aa9e217d8fa5b44f946b59e848760405180836001600160a01b0316815260200180602001828103825283818151815260200191508051906020019080838360005b8381101561129357818101518382015260200161127b565b50505050905090810190601f1680156112c05780820380516001836020036101000a031916815260200191505b50935050505060405180910390a46112d88a82612107565b84511561130157600060606112ec8761130e565b92509250506112fe8d8d8585856113ee565b50505b5050505050505050505050565b600080606083806020019051606081101561132857600080fd5b81516020830151604080850180519151939592948301929184600160201b82111561135257600080fd5b90830190602082018581111561136757600080fd5b8251600160201b81118282018810171561138057600080fd5b82525081516020918201929091019080838360005b838110156113ad578181015183820152602001611395565b50505050905090810190601f1680156113da5780820380516001836020036101000a031916815260200191505b506040525050509250925092509193909250565b600061145d846001600160a01b03166312bc0a446040518163ffffffff1660e01b815260040160206040518083038186803b15801561142c57600080fd5b505afa158015611440573d6000803e3d6000fd5b505050506040513d602081101561145657600080fd5b50516109d0565b90506060806060836001600160a01b031663bbd2d6468888886040518463ffffffff1660e01b815260040180846001600160a01b0316815260200183815260200180602001828103825283818151815260200191508051906020019080838360005b838110156114d75781810151838201526020016114bf565b50505050905090810190601f1680156115045780820380516001836020036101000a031916815260200191505b50945050505050600060405180830381600087803b15801561152557600080fd5b505af1158015611539573d6000803e3d6000fd5b505050506040513d6000823e601f3d908101601f19168201604052606081101561156257600080fd5b8101908080516040519392919084600160201b82111561158157600080fd5b90830190602082018581111561159657600080fd5b82518660208202830111600160201b821117156115b257600080fd5b82525081516020918201928201910280838360005b838110156115df5781810151838201526020016115c7565b5050505090500160405260200180516040519392919084600160201b82111561160757600080fd5b90830190602082018581111561161c57600080fd5b82518660208202830111600160201b8211171561163857600080fd5b82525081516020918201928201910280838360005b8381101561166557818101518382015260200161164d565b5050505090500160405260200180516040519392919084600160201b82111561168d57600080fd5b9083019060208201858111156116a257600080fd5b82518660208202830111600160201b821117156116be57600080fd5b82525081516020918201928201910280838360005b838110156116eb5781810151838201526020016116d3565b50505050905001604052505050925092509250606086866040516020018083815260200180602001828103825283818151815260200191508051906020019080838360005b83811015611748578181015183820152602001611730565b50505050905090810190601f1680156117755780820380516001836020036101000a031916815260200191505b50935050505060405160208183030381529060405290506118f689898387878760405160200180866001600160a01b0316815260200180602001806020018060200180602001858103855289818151815260200191508051906020019080838360005b838110156117f05781810151838201526020016117d8565b50505050905090810190601f16801561181d5780820380516001836020036101000a031916815260200191505b508581038452885181528851602091820191808b01910280838360005b8381101561185257818101518382015260200161183a565b50505050905001858103835287818151815260200191508051906020019060200280838360005b83811015611891578181015183820152602001611879565b50505050905001858103825286818151815260200191508051906020019060200280838360005b838110156118d05781810151838201526020016118b8565b5050505090500199505050505050505050506040516020818303038152906040526121ed565b6118fe610aa0565b6001600160a01b0316630442bad58a60078d8c8989898960405160200180876001600160a01b03168152602001866001600160a01b0316815260200180602001806020018060200180602001858103855289818151815260200191508051906020019060200280838360005b8381101561198257818101518382015260200161196a565b50505050905001858103845288818151815260200191508051906020019060200280838360005b838110156119c15781810151838201526020016119a9565b50505050905001858103835287818151815260200191508051906020019060200280838360005b83811015611a005781810151838201526020016119e8565b50505050905001858103825286818151815260200191508051906020019080838360005b83811015611a3c578181015183820152602001611a24565b50505050905090810190601f168015611a695780820380516001836020036101000a031916815260200191505b509a50505050505050505050506040516020818303038152906040526040518463ffffffff1660e01b815260040180846001600160a01b03168152602001836009811115611ab357fe5b815260200180602001828103825283818151815260200191508051906020019080838360005b83811015611af1578181015183820152602001611ad9565b50505050905090810190601f168015611b1e5780820380516001836020036101000a031916815260200191505b50945050505050600060405180830381600087803b158015611b3f57600080fd5b505af1158015611b53573d6000803e3d6000fd5b50505050876001600160a01b0316896001600160a01b03168b6001600160a01b03167f62e5ab7686baa8b666d45a227de296ea589ff48f1f215ca0e647ef6417a8657e8a8a8989896040518086815260200180602001806020018060200180602001858103855289818151815260200191508051906020019080838360005b83811015611bea578181015183820152602001611bd2565b50505050905090810190601f168015611c175780820380516001836020036101000a031916815260200191505b508581038452885181528851602091820191808b01910280838360005b83811015611c4c578181015183820152602001611c34565b50505050905001858103835287818151815260200191508051906020019060200280838360005b83811015611c8b578181015183820152602001611c73565b50505050905001858103825286818151815260200191508051906020019060200280838360005b83811015611cca578181015183820152602001611cb2565b50505050905001995050505050505050505060405180910390a450505050505050505050565b6000818060200190516020811015611d0757600080fd5b50519050611d13610aa0565b604080516001600160a01b038781166020830152848116828401528251808303840181526060830193849052630442bad560e01b90935286811660648301908152931692630442bad59287926008929060840183815260200180602001828103825283818151815260200191508051906020019080838360005b83811015611da5578181015183820152602001611d8d565b50505050905090810190601f168015611dd25780820380516001836020036101000a031916815260200191505b50945050505050600060405180830381600087803b158015611df357600080fd5b505af1158015611e07573d6000803e3d6000fd5b50505050610987838261221a565b6000818060200190516020811015611e2c57600080fd5b50519050611e3861098d565b6001600160a01b03166371b79dc1826040518263ffffffff1660e01b815260040180826001600160a01b0316815260200191505060206040518083038186803b158015611e8457600080fd5b505afa158015611e98573d6000803e3d6000fd5b505050506040513d6020811015611eae57600080fd5b5051611eeb5760405162461bcd60e51b815260040180806020018281038252604f8152602001806122dc604f913960600191505060405180910390fd5b826001600160a01b0316816001600160a01b031663c98091876040518163ffffffff1660e01b815260040160206040518083038186803b158015611f2e57600080fd5b505afa158015611f42573d6000803e3d6000fd5b505050506040513d6020811015611f5857600080fd5b50516001600160a01b031614611f9f5760405162461bcd60e51b815260040180806020018281038252604c8152602001806123d7604c913960600191505060405180910390fd5b611fa7610aa0565b604080516001600160a01b038881166020830152848116828401528251808303840181526060830193849052630442bad560e01b90935287811660648301908152931692630442bad59288926009929060840183815260200180602001828103825283818151815260200191508051906020019080838360005b83811015612039578181015183820152602001612021565b50505050905090810190601f1680156120665780820380516001836020036101000a031916815260200191505b50945050505050600060405180830381600087803b15801561208757600080fd5b505af115801561209b573d6000803e3d6000fd5b505050506120a98482612107565b5050505050565b6001600160a01b0382811660008181526020819052604080822080546001600160a01b0319169486169485179055517f8852dcaa71340ea616a65ffac013450dfb238607481fb9d78346c667fe256c139190a35050565b604080516001600160a01b0383811660208084019190915283518084039091018152828401938490526310acd06d60e01b9093528416916310acd06d916008919060440180835b815260200180602001828103825283818151815260200191508051906020019080838360005b8381101561218c578181015183820152602001612174565b50505050905090810190601f1680156121b95780820380516001836020036101000a031916815260200191505b509350505050600060405180830381600087803b1580156121d957600080fd5b505af11580156106b4573d6000803e3d6000fd5b6040516310acd06d60e01b81526001600160a01b038316906310acd06d906009908490600401808361214e565b604080516001600160a01b0383811660208084019190915283518084039091018152828401938490526310acd06d60e01b9093528416916310acd06d91600a9190604401808361214e56fe6f6e6c7946756e644465706c6f7965724f776e65723a204f6e6c79207468652046756e644465706c6f796572206f776e65722063616e2063616c6c20746869732066756e6374696f6e7265636569766543616c6c46726f6d436f6d7074726f6c6c65723a20496e76616c6964205f616374696f6e49645f5f7265616374697661746545787465726e616c506f736974696f6e3a204163636f756e742070726f7669646564206973206e6f7420612076616c69642065787465726e616c20706f736974696f6e7265636569766543616c6c46726f6d436f6d7074726f6c6c65723a20556e617574686f72697a656475706461746545787465726e616c506f736974696f6e5479706573496e666f3a205479706520646f6573206e6f742065786973744f6e6c79207468652046756e644465706c6f7965722063616e206d616b6520746869732063616c6c5f5f63726561746545787465726e616c506f736974696f6e3a20496e76616c6964207479706549645f5f7265616374697661746545787465726e616c506f736974696f6e3a2045787465726e616c20706f736974696f6e2062656c6f6e677320746f206120646966666572656e74207661756c747265636569766543616c6c46726f6d436f6d7074726f6c6c65723a2046756e64206973206e6f742076616c696475706461746545787465726e616c506f736974696f6e5479706573496e666f3a20556e657175616c20617272617973a2646970667358221220a5560c677a053a086912849d3e9a5ac02abd1c661035e2c40b44f4088d81bb5764736f6c634300060c0033",
  "devdoc": {
    "author": "Enzyme Council <security@enzyme.finance>",
    "kind": "dev",
    "methods": {
      "activateForFund(bool)": {
        "details": "Unimplemented by default, may be overridden."
      },
      "deactivateForFund()": {
        "details": "Unimplemented by default, may be overridden."
      },
      "getExternalPositionFactory()": {
        "returns": {
          "externalPositionFactory_": "The `EXTERNAL_POSITION_FACTORY` variable value"
        }
      },
      "getExternalPositionLibForType(uint256)": {
        "params": {
          "_typeId": "The type for which to get the external position library"
        },
        "returns": {
          "lib_": "The external position library"
        }
      },
      "getExternalPositionParserForType(uint256)": {
        "params": {
          "_typeId": "The type for which to get the external position's parser"
        },
        "returns": {
          "parser_": "The external position parser"
        }
      },
      "getFundDeployer()": {
        "returns": {
          "fundDeployer_": "The `FUND_DEPLOYER` variable value"
        }
      },
      "getOwner()": {
        "details": "Ownership is deferred to the owner of the FundDeployer contract",
        "returns": {
          "owner_": "The owner"
        }
      },
      "getPolicyManager()": {
        "returns": {
          "policyManager_": "The `POLICY_MANAGER` variable value"
        }
      },
      "getVaultProxyForFund(address)": {
        "params": {
          "_comptrollerProxy": "The ComptrollerProxy of the fund"
        },
        "returns": {
          "vaultProxy_": "The VaultProxy of the fund"
        }
      },
      "receiveCallFromComptroller(address,uint256,bytes)": {
        "params": {
          "_actionId": "An ID representing the desired action",
          "_callArgs": "The encoded args for the action",
          "_caller": "The user who called for this action"
        }
      },
      "setConfigForFund(address,address,bytes)": {
        "params": {
          "_comptrollerProxy": "The ComptrollerProxy of the fund",
          "_vaultProxy": "The VaultProxy of the fund"
        }
      },
      "updateExternalPositionTypesInfo(uint256[],address[],address[])": {
        "params": {
          "_libs": "The libs",
          "_parsers": "The parsers",
          "_typeIds": "The external position type ids for which to set the libs and parsers"
        }
      }
    },
    "title": "ExternalPositionManager",
    "version": 1
  },
  "userdoc": {
    "kind": "user",
    "methods": {
      "activateForFund(bool)": {
        "notice": "Allows extension to run logic during fund activation"
      },
      "deactivateForFund()": {
        "notice": "Allows extension to run logic during fund deactivation (destruct)"
      },
      "getExternalPositionFactory()": {
        "notice": "Gets the `EXTERNAL_POSITION_FACTORY` variable"
      },
      "getExternalPositionLibForType(uint256)": {
        "notice": "Gets the external position library contract for a given type"
      },
      "getExternalPositionParserForType(uint256)": {
        "notice": "Gets the external position parser contract for a given type"
      },
      "getFundDeployer()": {
        "notice": "Gets the `FUND_DEPLOYER` variable"
      },
      "getOwner()": {
        "notice": "Gets the owner of this contract"
      },
      "getPolicyManager()": {
        "notice": "Gets the `POLICY_MANAGER` variable"
      },
      "getVaultProxyForFund(address)": {
        "notice": "Gets the verified VaultProxy for a given ComptrollerProxy"
      },
      "receiveCallFromComptroller(address,uint256,bytes)": {
        "notice": "Receives a dispatched `callOnExtension` from a fund's ComptrollerProxy"
      },
      "setConfigForFund(address,address,bytes)": {
        "notice": "Enables the ExternalPositionManager to be used by a fund"
      },
      "updateExternalPositionTypesInfo(uint256[],address[],address[])": {
        "notice": "Updates the libs and parsers for a set of external position type ids"
      }
    },
    "notice": "Extension to handle external position actions for funds",
    "version": 1
  },
  "storageLayout": {
    "storage": [
      {
        "astId": 41927,
        "contract": "contracts/release/extensions/external-position-manager/ExternalPositionManager.sol:ExternalPositionManager",
        "label": "comptrollerProxyToVaultProxy",
        "offset": 0,
        "slot": "0",
        "type": "t_mapping(t_address,t_address)"
      },
      {
        "astId": 16133,
        "contract": "contracts/release/extensions/external-position-manager/ExternalPositionManager.sol:ExternalPositionManager",
        "label": "typeIdToTypeInfo",
        "offset": 0,
        "slot": "1",
        "type": "t_mapping(t_uint256,t_struct(ExternalPositionTypeInfo)16797_storage)"
      }
    ],
    "types": {
      "t_address": {
        "encoding": "inplace",
        "label": "address",
        "numberOfBytes": "20"
      },
      "t_mapping(t_address,t_address)": {
        "encoding": "mapping",
        "key": "t_address",
        "label": "mapping(address => address)",
        "numberOfBytes": "32",
        "value": "t_address"
      },
      "t_mapping(t_uint256,t_struct(ExternalPositionTypeInfo)16797_storage)": {
        "encoding": "mapping",
        "key": "t_uint256",
        "label": "mapping(uint256 => struct IExternalPositionManager.ExternalPositionTypeInfo)",
        "numberOfBytes": "32",
        "value": "t_struct(ExternalPositionTypeInfo)16797_storage"
      },
      "t_struct(ExternalPositionTypeInfo)16797_storage": {
        "encoding": "inplace",
        "label": "struct IExternalPositionManager.ExternalPositionTypeInfo",
        "members": [
          {
            "astId": 16794,
            "contract": "contracts/release/extensions/external-position-manager/ExternalPositionManager.sol:ExternalPositionManager",
            "label": "parser",
            "offset": 0,
            "slot": "0",
            "type": "t_address"
          },
          {
            "astId": 16796,
            "contract": "contracts/release/extensions/external-position-manager/ExternalPositionManager.sol:ExternalPositionManager",
            "label": "lib",
            "offset": 0,
            "slot": "1",
            "type": "t_address"
          }
        ],
        "numberOfBytes": "64"
      },
      "t_uint256": {
        "encoding": "inplace",
        "label": "uint256",
        "numberOfBytes": "32"
      }
    }
  }
}