{
  "address": "0xF596546a917dCED4f186811e21FC7296c99c4e1C",
  "abi": [
    {
      "inputs": [
        {
          "internalType": "address",
          "name": "_fundDeployerV4",
          "type": "address"
        }
      ],
      "stateMutability": "nonpayable",
      "type": "constructor"
    },
    {
      "anonymous": false,
      "inputs": [
        {
          "indexed": false,
          "internalType": "address",
          "name": "nextGlobalConfigLib",
          "type": "address"
        }
      ],
      "name": "GlobalConfigLibSet",
      "type": "event"
    },
    {
      "inputs": [],
      "name": "getDispatcher",
      "outputs": [
        {
          "internalType": "address",
          "name": "dispatcher_",
          "type": "address"
        }
      ],
      "stateMutability": "view",
      "type": "function"
    },
    {
      "inputs": [],
      "name": "getGlobalConfigLib",
      "outputs": [
        {
          "internalType": "address",
          "name": "globalConfigLib_",
          "type": "address"
        }
      ],
      "stateMutability": "view",
      "type": "function"
    },
    {
      "inputs": [
        {
          "internalType": "address",
          "name": "_dispatcher",
          "type": "address"
        }
      ],
      "name": "init",
      "outputs": [],
      "stateMutability": "nonpayable",
      "type": "function"
    },
    {
      "inputs": [
        {
          "internalType": "address",
          "name": "_vaultProxy",
          "type": "address"
        },
        {
          "internalType": "address",
          "name": "_recipientToValidate",
          "type": "address"
        },
        {
          "internalType": "uint256",
          "name": "_sharesAmountToValidate",
          "type": "uint256"
        },
        {
          "internalType": "address",
          "name": "_redeemContract",
          "type": "address"
        },
        {
          "internalType": "bytes4",
          "name": "_redeemSelector",
          "type": "bytes4"
        },
        {
          "internalType": "bytes",
          "name": "_redeemData",
          "type": "bytes"
        }
      ],
      "name": "isValidRedeemSharesCall",
      "outputs": [
        {
          "internalType": "bool",
          "name": "isValid_",
          "type": "bool"
        }
      ],
      "stateMutability": "view",
      "type": "function"
    },
    {
      "inputs": [],
      "name": "proxiableUUID",
      "outputs": [
        {
          "internalType": "bytes32",
          "name": "uuid_",
          "type": "bytes32"
        }
      ],
      "stateMutability": "pure",
      "type": "function"
    },
    {
      "inputs": [
        {
          "internalType": "address",
          "name": "_nextGlobalConfigLib",
          "type": "address"
        }
      ],
      "name": "setGlobalConfigLib",
      "outputs": [],
      "stateMutability": "nonpayable",
      "type": "function"
    }
  ],
  "transactionHash": "0x64202f0c333513275ce1c39fb199e82d74420fb7fe3bcc8f58e106ec34138573",
  "args": [
    "0xd590Dc2e92ce061d941A7362F9DD92540679Ef8f"
  ],
  "numDeployments": 1,
  "solcInputHash": "ddc5045fde4ce39a48d0eb052f9d6752",
  "bytecode": "0x60a060405234801561001057600080fd5b506040516107d33803806107d38339818101604052602081101561003357600080fd5b5051606081901b6001600160601b0319166080526001600160a01b031661076c61006760003980610420525061076c6000f3fe608060405234801561001057600080fd5b50600436106100625760003560e01c806319ab453c1461006757806343233f011461008f57806352d1902d146100b55780635d4755dc146100cf5780639528ee1614610188578063ebb3d589146101ac575b600080fd5b61008d6004803603602081101561007d57600080fd5b50356001600160a01b03166101b4565b005b61008d600480360360208110156100a557600080fd5b50356001600160a01b031661027b565b6100bd610375565b60408051918252519081900360200190f35b610174600480360360c08110156100e557600080fd5b6001600160a01b0382358116926020810135821692604082013592606083013516916001600160e01b03196080820135169181019060c0810160a082013564010000000081111561013557600080fd5b82018360208201111561014757600080fd5b8035906020019184600183028401116401000000008311171561016957600080fd5b509092509050610399565b604080519115158252519081900360200190f35b6101906105b1565b604080516001600160a01b039092168252519081900360200190f35b6101906105d6565b60006101be6105d6565b6001600160a01b031614610219576040805162461bcd60e51b815260206004820152601f60248201527f696e69743a2050726f787920616c726561647920696e697469616c697a656400604482015290519081900360640190fd5b600080546001600160a01b0319166001600160a01b0383161790557fce6de52b779ce41beea76a6e7a997211f0006af21ed2e2924caa5bdc92dac31861025d6105b1565b604080516001600160a01b039092168252519081900360200190a150565b6102836105d6565b6001600160a01b031663893d20e86040518163ffffffff1660e01b815260040160206040518083038186803b1580156102bb57600080fd5b505afa1580156102cf573d6000803e3d6000fd5b505050506040513d60208110156102e557600080fd5b50516001600160a01b0316331461032d5760405162461bcd60e51b81526004018080602001828103825260308152602001806107076030913960400191505060405180910390fd5b610336816105e5565b604080516001600160a01b038316815290517fce6de52b779ce41beea76a6e7a997211f0006af21ed2e2924caa5bdc92dac3189181900360200190a150565b7ff25d88d51901d7fabc9924b03f4c2fe4300e6fe1aae4b5134c0a90b68cd8e81c90565b6000806103a46105d6565b6001600160a01b0316633d7c74f88a6040518263ffffffff1660e01b815260040180826001600160a01b0316815260200191505060206040518083038186803b1580156103f057600080fd5b505afa158015610404573d6000803e3d6000fd5b505050506040513d602081101561041a57600080fd5b505190507f00000000000000000000000000000000000000000000000000000000000000006001600160a01b0390811690821614156105a057886001600160a01b0316635a53e3486040518163ffffffff1660e01b815260040160206040518083038186803b15801561048c57600080fd5b505afa1580156104a0573d6000803e3d6000fd5b505050506040513d60208110156104b657600080fd5b50516001600160a01b038781169116146104d45760009150506105a6565b6001600160e01b03198516633462fcc160e01b148061050357506001600160e01b03198516636af8e7eb60e01b145b6105115760009150506105a6565b6000808585604081101561052457600080fd5b506001600160a01b0381358116935060209091013591508a1661aaaa148015906105605750816001600160a01b03168a6001600160a01b031614155b1561057157600093505050506105a6565b60011989148015906105835750808914155b1561059457600093505050506105a6565b600193505050506105a6565b60009150505b979650505050505050565b7f360894a13ba1a3210667c828492db98dca3e2076cc3735a920a3ca505d382bbc5490565b6000546001600160a01b031690565b7ff25d88d51901d7fabc9924b03f4c2fe4300e6fe1aae4b5134c0a90b68cd8e81c60001b816001600160a01b03166352d1902d6040518163ffffffff1660e01b815260040160206040518083038186803b15801561064257600080fd5b505afa158015610656573d6000803e3d6000fd5b505050506040513d602081101561066c57600080fd5b5051146106aa5760405162461bcd60e51b81526004018080602001828103825260388152602001806106cf6038913960400191505060405180910390fd5b7f360894a13ba1a3210667c828492db98dca3e2076cc3735a920a3ca505d382bbc5556fe5f5f757064617465436f6465416464726573733a205f6e657874476c6f62616c436f6e6669674c6962206e6f7420636f6d70617469626c654f6e6c79207468652044697370617463686572206f776e65722063616e2063616c6c20746869732066756e6374696f6ea2646970667358221220fd1b41d778213e42de1a00c83f782661f7db32222f6e9fc354b73fb7b3ea991164736f6c634300060c0033",
  "devdoc": {
    "author": "Enzyme Council <security@enzyme.finance>",
    "details": "Only supports releases v4 and higher",
    "kind": "dev",
    "methods": {
      "getDispatcher()": {
        "returns": {
          "dispatcher_": "The `dispatcher` variable value"
        }
      },
      "getGlobalConfigLib()": {
        "returns": {
          "globalConfigLib_": "The address of the GlobalConfigLib target"
        }
      },
      "init(address)": {
        "details": "Serves as a pseudo-constructor",
        "params": {
          "_dispatcher": "The Dispatcher contract"
        }
      },
      "isValidRedeemSharesCall(address,address,uint256,address,bytes4,bytes)": {
        "details": "Use  NO_VALIDATION_ constants to skip optional validation of recipient and/or amount",
        "params": {
          "_recipientToValidate": "The intended recipient of the assets received from the redemption",
          "_redeemContract": "The contract to call",
          "_redeemData": "The encoded params to call",
          "_redeemSelector": "The selector to call",
          "_sharesAmountToValidate": "The intended amount of shares to redeem",
          "_vaultProxy": "The VaultProxy (shares token)"
        },
        "returns": {
          "isValid_": "True if valid"
        }
      },
      "proxiableUUID()": {
        "returns": {
          "uuid_": "The bytes32 hash representing the UUID"
        }
      },
      "setGlobalConfigLib(address)": {
        "details": "This function is absolutely critical. __updateCodeAddress() validates that the target is a valid Proxiable contract instance. Does not block _nextGlobalConfigLib from being the same as the current GlobalConfigLib",
        "params": {
          "_nextGlobalConfigLib": "The address to set as the GlobalConfigLib"
        }
      }
    },
    "title": "GlobalConfigLib Contract",
    "version": 1
  },
  "userdoc": {
    "kind": "user",
    "methods": {
      "getDispatcher()": {
        "notice": "Gets the `dispatcher` variable"
      },
      "getGlobalConfigLib()": {
        "notice": "Gets the GlobalConfigLib target for the GlobalConfigProxy"
      },
      "init(address)": {
        "notice": "Initializes the GlobalConfigProxy with core configuration"
      },
      "isValidRedeemSharesCall(address,address,uint256,address,bytes4,bytes)": {
        "notice": "Validates whether a call to redeem shares is valid for the shares version"
      },
      "proxiableUUID()": {
        "notice": "Returns a unique bytes32 hash for GlobalConfigLib instances"
      },
      "setGlobalConfigLib(address)": {
        "notice": "Sets the GlobalConfigLib target for the GlobalConfigProxy"
      }
    },
    "notice": "The proxiable library contract for GlobalConfigProxy",
    "version": 1
  },
  "storageLayout": {
    "storage": [
      {
        "astId": 6399,
        "contract": "contracts/persistent/global-config/GlobalConfigLib.sol:GlobalConfigLib",
        "label": "dispatcher",
        "offset": 0,
        "slot": "0",
        "type": "t_address"
      }
    ],
    "types": {
      "t_address": {
        "encoding": "inplace",
        "label": "address",
        "numberOfBytes": "20"
      }
    }
  }
}