{
  "address": "0xbf07f33165Cc5d64c299E4567e19575AabB80575",
  "abi": [
    {
      "inputs": [
        {
          "internalType": "address",
          "name": "_fundDeployer",
          "type": "address"
        },
        {
          "internalType": "address",
          "name": "_policyManager",
          "type": "address"
        },
        {
          "internalType": "address",
          "name": "_valueInterpreter",
          "type": "address"
        }
      ],
      "stateMutability": "nonpayable",
      "type": "constructor"
    },
    {
      "anonymous": false,
      "inputs": [
        {
          "indexed": true,
          "internalType": "address",
          "name": "comptrollerProxy",
          "type": "address"
        },
        {
          "indexed": false,
          "internalType": "address",
          "name": "caller",
          "type": "address"
        },
        {
          "indexed": true,
          "internalType": "address",
          "name": "adapter",
          "type": "address"
        },
        {
          "indexed": true,
          "internalType": "bytes4",
          "name": "selector",
          "type": "bytes4"
        },
        {
          "indexed": false,
          "internalType": "bytes",
          "name": "integrationData",
          "type": "bytes"
        },
        {
          "indexed": false,
          "internalType": "address[]",
          "name": "incomingAssets",
          "type": "address[]"
        },
        {
          "indexed": false,
          "internalType": "uint256[]",
          "name": "incomingAssetAmounts",
          "type": "uint256[]"
        },
        {
          "indexed": false,
          "internalType": "address[]",
          "name": "spendAssets",
          "type": "address[]"
        },
        {
          "indexed": false,
          "internalType": "uint256[]",
          "name": "spendAssetAmounts",
          "type": "uint256[]"
        }
      ],
      "name": "CallOnIntegrationExecutedForFund",
      "type": "event"
    },
    {
      "anonymous": false,
      "inputs": [
        {
          "indexed": true,
          "internalType": "address",
          "name": "comptrollerProxy",
          "type": "address"
        },
        {
          "indexed": true,
          "internalType": "address",
          "name": "vaultProxy",
          "type": "address"
        }
      ],
      "name": "ValidatedVaultProxySetForFund",
      "type": "event"
    },
    {
      "inputs": [
        {
          "internalType": "bool",
          "name": "",
          "type": "bool"
        }
      ],
      "name": "activateForFund",
      "outputs": [],
      "stateMutability": "nonpayable",
      "type": "function"
    },
    {
      "inputs": [],
      "name": "deactivateForFund",
      "outputs": [],
      "stateMutability": "nonpayable",
      "type": "function"
    },
    {
      "inputs": [],
      "name": "getFundDeployer",
      "outputs": [
        {
          "internalType": "address",
          "name": "fundDeployer_",
          "type": "address"
        }
      ],
      "stateMutability": "view",
      "type": "function"
    },
    {
      "inputs": [],
      "name": "getOwner",
      "outputs": [
        {
          "internalType": "address",
          "name": "owner_",
          "type": "address"
        }
      ],
      "stateMutability": "view",
      "type": "function"
    },
    {
      "inputs": [],
      "name": "getPolicyManager",
      "outputs": [
        {
          "internalType": "address",
          "name": "policyManager_",
          "type": "address"
        }
      ],
      "stateMutability": "view",
      "type": "function"
    },
    {
      "inputs": [],
      "name": "getValueInterpreter",
      "outputs": [
        {
          "internalType": "address",
          "name": "valueInterpreter_",
          "type": "address"
        }
      ],
      "stateMutability": "view",
      "type": "function"
    },
    {
      "inputs": [
        {
          "internalType": "address",
          "name": "_comptrollerProxy",
          "type": "address"
        }
      ],
      "name": "getVaultProxyForFund",
      "outputs": [
        {
          "internalType": "address",
          "name": "vaultProxy_",
          "type": "address"
        }
      ],
      "stateMutability": "view",
      "type": "function"
    },
    {
      "inputs": [
        {
          "internalType": "address",
          "name": "_caller",
          "type": "address"
        },
        {
          "internalType": "uint256",
          "name": "_actionId",
          "type": "uint256"
        },
        {
          "internalType": "bytes",
          "name": "_callArgs",
          "type": "bytes"
        }
      ],
      "name": "receiveCallFromComptroller",
      "outputs": [],
      "stateMutability": "nonpayable",
      "type": "function"
    },
    {
      "inputs": [
        {
          "internalType": "address",
          "name": "_comptrollerProxy",
          "type": "address"
        },
        {
          "internalType": "address",
          "name": "_vaultProxy",
          "type": "address"
        },
        {
          "internalType": "bytes",
          "name": "",
          "type": "bytes"
        }
      ],
      "name": "setConfigForFund",
      "outputs": [],
      "stateMutability": "nonpayable",
      "type": "function"
    }
  ],
  "transactionHash": "0x72b0c247901f7951c59db56aaff9f36fbf4242367aa1dbb9b0240fd919b15da2",
  "args": [
    "0xd590Dc2e92ce061d941A7362F9DD92540679Ef8f",
    "0x92AF075CCf78588eE15999F4Cbb27f980eB8FEA6",
    "0x2D9caF49489B8Be0E0eF9f01C2d190C3B2e42998"
  ],
  "numDeployments": 1,
  "solcInputHash": "ddc5045fde4ce39a48d0eb052f9d6752",
  "bytecode": "0x60e060405234801561001057600080fd5b506040516127233803806127238339818101604052606081101561003357600080fd5b50805160208201516040909201516001600160601b0319606092831b811660805292821b831660a052901b1660c05260805160601c60a05160601c60c05160601c61268761009c6000398061047952508061054f52508061049f528061052952506126876000f3fe608060405234801561001057600080fd5b50600436106100935760003560e01c8063893d20e811610066578063893d20e81461018657806397c0ac871461018e578063bd8e959a14610196578063d44ad6cb1461019e578063f067cc11146101a657610093565b80631bee801e14610098578063467903461461011d57806380d570631461015f578063875fb4b31461017e575b600080fd5b61011b600480360360608110156100ae57600080fd5b6001600160a01b0382351691602081013591810190606081016040820135600160201b8111156100dd57600080fd5b8201836020820111156100ef57600080fd5b803590602001918460018302840111600160201b8311171561011057600080fd5b50909250905061022d565b005b6101436004803603602081101561013357600080fd5b50356001600160a01b0316610453565b604080516001600160a01b039092168252519081900360200190f35b61011b6004803603602081101561017557600080fd5b50351515610474565b610143610477565b61014361049b565b610143610527565b61011b61054b565b61014361054d565b61011b600480360360608110156101bc57600080fd5b6001600160a01b038235811692602081013590911691810190606081016040820135600160201b8111156101ef57600080fd5b82018360208201111561020157600080fd5b803590602001918460018302840111600160201b8311171561022257600080fd5b509092509050610571565b33600061023982610453565b90506001600160a01b0381166102805760405162461bcd60e51b815260040180806020018281038252602d8152602001806125c2602d913960400191505060405180910390fd5b806001600160a01b031663714ca2d1876040518263ffffffff1660e01b815260040180826001600160a01b0316815260200191505060206040518083038186803b1580156102cd57600080fd5b505afa1580156102e1573d6000803e3d6000fd5b505050506040513d60208110156102f757600080fd5b50516103345760405162461bcd60e51b81526004018080602001828103825260288152602001806125106028913960400191505060405180910390fd5b846103805761037b86838387878080601f0160208091040260200160405190810160405280939291908181526020018383808284376000920191909152506105d892505050565b61044b565b84600114156103ca5761037b868386868080601f016020809104026020016040519081016040528093929190818152602001838380828437600092019190915250610aee92505050565b84600214156104145761037b868386868080601f016020809104026020016040519081016040528093929190818152602001838380828437600092019190915250610df192505050565b60405162461bcd60e51b815260040180806020018281038252602d8152602001806124b7602d913960400191505060405180910390fd5b505050505050565b6001600160a01b03808216600090815260208190526040902054165b919050565b50565b7f000000000000000000000000000000000000000000000000000000000000000090565b60007f00000000000000000000000000000000000000000000000000000000000000006001600160a01b031663893d20e86040518163ffffffff1660e01b815260040160206040518083038186803b1580156104f657600080fd5b505afa15801561050a573d6000803e3d6000fd5b505050506040513d602081101561052057600080fd5b5051905090565b7f000000000000000000000000000000000000000000000000000000000000000090565b565b7f000000000000000000000000000000000000000000000000000000000000000090565b610579610527565b6001600160a01b0316336001600160a01b0316146105c85760405162461bcd60e51b815260040180806020018281038252602881526020018061259a6028913960400191505060405180910390fd5b6105d2848461101f565b50505050565b816001600160a01b0316635a53e3486040518163ffffffff1660e01b815260040160206040518083038186803b15801561061157600080fd5b505afa158015610625573d6000803e3d6000fd5b505050506040513d602081101561063b57600080fd5b50516001600160a01b038481169116146106865760405162461bcd60e51b815260040180806020018281038252602e815260200180612434602e913960400191505060405180910390fd5b600080606061069484611076565b9250925092506060806060806106ad8a8a898989611156565b93509350935093506106bd61054d565b6001600160a01b0316630442bad58b60018e8b8b8a8a8a8a60405160200180886001600160a01b03168152602001876001600160a01b03168152602001866001600160e01b031916815260200180602001806020018060200180602001858103855289818151815260200191508051906020019060200280838360005b8381101561075257818101518382015260200161073a565b50505050905001858103845288818151815260200191508051906020019060200280838360005b83811015610791578181015183820152602001610779565b50505050905001858103835287818151815260200191508051906020019060200280838360005b838110156107d05781810151838201526020016107b8565b50505050905001858103825286818151815260200191508051906020019060200280838360005b8381101561080f5781810151838201526020016107f7565b505050509050019b5050505050505050505050506040516020818303038152906040526040518463ffffffff1660e01b815260040180846001600160a01b0316815260200183600981111561086057fe5b815260200180602001828103825283818151815260200191508051906020019080838360005b8381101561089e578181015183820152602001610886565b50505050905090810190601f1680156108cb5780820380516001836020036101000a031916815260200191505b50945050505050600060405180830381600087803b1580156108ec57600080fd5b505af1158015610900573d6000803e3d6000fd5b50505050856001600160e01b031916876001600160a01b03168b6001600160a01b03167ff9a77e6aa0d5e80e8c932c9586e789fc0f4efe610f844fc982129c6f385bfffa8e898989898960405180876001600160a01b03168152602001806020018060200180602001806020018060200186810386528b818151815260200191508051906020019080838360005b838110156109a657818101518382015260200161098e565b50505050905090810190601f1680156109d35780820380516001836020036101000a031916815260200191505b5086810385528a5181528a51602091820191808d01910280838360005b83811015610a085781810151838201526020016109f0565b50505050905001868103845289818151815260200191508051906020019060200280838360005b83811015610a47578181015183820152602001610a2f565b50505050905001868103835288818151815260200191508051906020019060200280838360005b83811015610a86578181015183820152602001610a6e565b50505050905001868103825287818151815260200191508051906020019060200280838360005b83811015610ac5578181015183820152602001610aad565b505050509050019b50505050505050505050505060405180910390a45050505050505050505050565b6060818060200190516020811015610b0557600080fd5b8101908080516040519392919084600160201b821115610b2457600080fd5b908301906020820185811115610b3957600080fd5b82518660208202830111600160201b82111715610b5557600080fd5b82525081516020918201928201910280838360005b83811015610b82578181015183820152602001610b6a565b505050509050016040525050509050610b9961054d565b6001600160a01b0316630442bad5846004878560405160200180836001600160a01b0316815260200180602001828103825283818151815260200191508051906020019060200280838360005b83811015610bfe578181015183820152602001610be6565b5050505090500193505050506040516020818303038152906040526040518463ffffffff1660e01b815260040180846001600160a01b03168152602001836009811115610c4757fe5b815260200180602001828103825283818151815260200191508051906020019080838360005b83811015610c85578181015183820152602001610c6d565b50505050905090810190601f168015610cb25780820380516001836020036101000a031916815260200191505b50945050505050600060405180830381600087803b158015610cd357600080fd5b505af1158015610ce7573d6000803e3d6000fd5b5050505060005b8151811015610dea57610cff610477565b6001600160a01b0316639be918e6838381518110610d1957fe5b60200260200101516040518263ffffffff1660e01b815260040180826001600160a01b0316815260200191505060206040518083038186803b158015610d5e57600080fd5b505afa158015610d72573d6000803e3d6000fd5b505050506040513d6020811015610d8857600080fd5b5051610dc55760405162461bcd60e51b815260040180806020018281038252602c81526020018061248b602c913960400191505060405180910390fd5b610de284838381518110610dd557fe5b60200260200101516112ab565b600101610cee565b5050505050565b6060818060200190516020811015610e0857600080fd5b8101908080516040519392919084600160201b821115610e2757600080fd5b908301906020820185811115610e3c57600080fd5b82518660208202830111600160201b82111715610e5857600080fd5b82525081516020918201928201910280838360005b83811015610e85578181015183820152602001610e6d565b505050509050016040525050509050610e9c61054d565b6001600160a01b0316630442bad5846005878560405160200180836001600160a01b0316815260200180602001828103825283818151815260200191508051906020019060200280838360005b83811015610f01578181015183820152602001610ee9565b5050505090500193505050506040516020818303038152906040526040518463ffffffff1660e01b815260040180846001600160a01b03168152602001836009811115610f4a57fe5b815260200180602001828103825283818151815260200191508051906020019080838360005b83811015610f88578181015183820152602001610f70565b50505050905090810190601f168015610fb55780820380516001836020036101000a031916815260200191505b50945050505050600060405180830381600087803b158015610fd657600080fd5b505af1158015610fea573d6000803e3d6000fd5b5050505060005b8151811015610dea576110178483838151811061100a57fe5b6020026020010151611391565b600101610ff1565b6001600160a01b0382811660008181526020819052604080822080546001600160a01b0319169486169485179055517f8852dcaa71340ea616a65ffac013450dfb238607481fb9d78346c667fe256c139190a35050565b600080606083806020019051606081101561109057600080fd5b81516020830151604080850180519151939592948301929184600160201b8211156110ba57600080fd5b9083019060208201858111156110cf57600080fd5b8251600160201b8111828201881017156110e857600080fd5b82525081516020918201929091019080838360005b838110156111155781810151838201526020016110fd565b50505050905090810190601f1680156111425780820380516001836020036101000a031916815260200191505b506040525050509250925092509193909250565b60608060608060608060006060806111718e8e8e8e8e6113dc565b809750819850829d50839950849a50859b50869f50505050505050506112838d8d8d8d8b878f60405160200180806020018060200180602001848103845287818151815260200191508051906020019060200280838360005b838110156111e25781810151838201526020016111ca565b50505050905001848103835286818151815260200191508051906020019060200280838360005b83811015611221578181015183820152602001611209565b50505050905001848103825285818151815260200191508051906020019060200280838360005b83811015611260578181015183820152602001611248565b505050509050019650505050505050604051602081830303815290604052611b98565b6112958e8e8e8c8989898e8a8a611df3565b9098509550505050505095509550955095915050565b604080516001600160a01b0383811660208084019190915283518084039091018152828401938490526310acd06d60e01b9093528416916310acd06d916004919060440180835b815260200180602001828103825283818151815260200191508051906020019080838360005b83811015611330578181015183820152602001611318565b50505050905090810190601f16801561135d5780820380516001836020036101000a031916815260200191505b509350505050600060405180830381600087803b15801561137d57600080fd5b505af115801561044b573d6000803e3d6000fd5b604080516001600160a01b0383811660208084019190915283518084039091018152828401938490526310acd06d60e01b9093528416916310acd06d916006919060440180836112f2565b606080606060006060806060896001600160a01b031663c54efee58c8b8b6040518463ffffffff1660e01b815260040180846001600160a01b03168152602001836001600160e01b031916815260200180602001828103825283818151815260200191508051906020019080838360005b8381101561146557818101518382015260200161144d565b50505050905090810190601f1680156114925780820380516001836020036101000a031916815260200191505b5094505050505060006040518083038186803b1580156114b157600080fd5b505afa1580156114c5573d6000803e3d6000fd5b505050506040513d6000823e601f3d908101601f1916820160405260a08110156114ee57600080fd5b815160208301805160405192949293830192919084600160201b82111561151457600080fd5b90830190602082018581111561152957600080fd5b82518660208202830111600160201b8211171561154557600080fd5b82525081516020918201928201910280838360005b8381101561157257818101518382015260200161155a565b5050505090500160405260200180516040519392919084600160201b82111561159a57600080fd5b9083019060208201858111156115af57600080fd5b82518660208202830111600160201b821117156115cb57600080fd5b82525081516020918201928201910280838360005b838110156115f85781810151838201526020016115e0565b5050505090500160405260200180516040519392919084600160201b82111561162057600080fd5b90830190602082018581111561163557600080fd5b82518660208202830111600160201b8211171561165157600080fd5b82525081516020918201928201910280838360005b8381101561167e578181015183820152602001611666565b5050505090500160405260200180516040519392919084600160201b8211156116a657600080fd5b9083019060208201858111156116bb57600080fd5b82518660208202830111600160201b821117156116d757600080fd5b82525081516020918201928201910280838360005b838110156117045781810151838201526020016116ec565b5050505091909101604052505084518651949e50929b5095995093975091955014915061176490505760405162461bcd60e51b815260040180806020018281038252602c8152602001806124e4602c913960400191505060405180910390fd5b84518751146117a45760405162461bcd60e51b815260040180806020018281038252602f8152602001806125ef602f913960400191505060405180910390fd5b6117ad83612149565b6117e85760405162461bcd60e51b81526004018080602001828103825260268152602001806125386026913960400191505060405180910390fd5b6117f187612149565b61182c5760405162461bcd60e51b81526004018080602001828103825260298152602001806124626029913960400191505060405180910390fd5b865167ffffffffffffffff8111801561184457600080fd5b5060405190808252806020026020018201604052801561186e578160200160208202803683370190505b50955060005b87518110156119f857611885610477565b6001600160a01b0316639be918e689838151811061189f57fe5b60200260200101516040518263ffffffff1660e01b815260040180826001600160a01b0316815260200191505060206040518083038186803b1580156118e457600080fd5b505afa1580156118f8573d6000803e3d6000fd5b505050506040513d602081101561190e57600080fd5b505161194b5760405162461bcd60e51b815260040180806020018281038252602e815260200180612406602e913960400191505060405180910390fd5b87818151811061195757fe5b60200260200101516001600160a01b03166370a082318d6040518263ffffffff1660e01b815260040180826001600160a01b0316815260200191505060206040518083038186803b1580156119ab57600080fd5b505afa1580156119bf573d6000803e3d6000fd5b505050506040513d60208110156119d557600080fd5b505187518890839081106119e557fe5b6020908102919091010152600101611874565b50825167ffffffffffffffff81118015611a1157600080fd5b50604051908082528060200260200182016040528015611a3b578160200160208202803683370190505b50905060005b8351811015611b8857838181518110611a5657fe5b60200260200101516001600160a01b03166370a082318d6040518263ffffffff1660e01b815260040180826001600160a01b0316815260200191505060206040518083038186803b158015611aaa57600080fd5b505afa158015611abe573d6000803e3d6000fd5b505050506040513d6020811015611ad457600080fd5b50518251839083908110611ae457fe5b60209081029190910101526001856002811115611afd57fe5b1415611b3a57611b358d858381518110611b1357fe5b60200260200101518d868581518110611b2857fe5b60200260200101516121dd565b611b80565b6002856002811115611b4857fe5b1415611b8057611b808d858381518110611b5e57fe5b60200260200101518d868581518110611b7357fe5b60200260200101516122cf565b600101611a41565b50959b949a509550955095509550565b60006060856001600160a01b03168588868660405160240180846001600160a01b031681526020018060200180602001838103835285818151815260200191508051906020019080838360005b83811015611bfd578181015183820152602001611be5565b50505050905090810190601f168015611c2a5780820380516001836020036101000a031916815260200191505b50838103825284518152845160209182019186019080838360005b83811015611c5d578181015183820152602001611c45565b50505050905090810190601f168015611c8a5780820380516001836020036101000a031916815260200191505b5060408051601f198184030181529181526020820180516001600160e01b03166001600160e01b0319909a16999099178952518151919890975087965094509250829150849050835b60208310611cf25780518252601f199092019160209182019101611cd3565b6001836020036101000a0380198251168184511680821785525050505050509050019150506000604051808303816000865af19150503d8060008114611d54576040519150601f19603f3d011682016040523d82523d6000602084013e611d59565b606091505b5091509150818190611de95760405162461bcd60e51b81526004018080602001828103825283818151815260200191508051906020019080838360005b83811015611dae578181015183820152602001611d96565b50505050905090810190601f168015611ddb5780820380516001836020036101000a031916815260200191505b509250505060405180910390fd5b5050505050505050565b606080885167ffffffffffffffff81118015611e0e57600080fd5b50604051908082528060200260200182016040528015611e38578160200160208202803683370190505b50915060005b8951811015611f1657611e81898281518110611e5657fe5b6020026020010151611e7b8e8d8581518110611e6e57fe5b6020026020010151612326565b906123a8565b838281518110611e8d57fe5b602002602001018181525050878181518110611ea557fe5b6020026020010151838281518110611eb957fe5b60200260200101511015611efe5760405162461bcd60e51b815260040180806020018281038252603c81526020018061255e603c913960400191505060405180910390fd5b611f0e8d8b8381518110610dd557fe5b600101611e3e565b50845167ffffffffffffffff81118015611f2f57600080fd5b50604051908082528060200260200182016040528015611f59578160200160208202803683370190505b50905060005b8551811015612139576000611f7a8d888481518110611e6e57fe5b9050848281518110611f8857fe5b6020026020010151811015611fd657611fbd81868481518110611fa757fe5b60200260200101516123a890919063ffffffff16565b838381518110611fc957fe5b6020026020010181815250505b6001886002811115611fe457fe5b14801561208d57506000878381518110611ffa57fe5b60200260200101516001600160a01b031663dd62ed3e8f8f6040518363ffffffff1660e01b815260040180836001600160a01b03168152602001826001600160a01b031681526020019250505060206040518083038186803b15801561205f57600080fd5b505afa158015612073573d6000803e3d6000fd5b505050506040513d602081101561208957600080fd5b5051115b156120b7576120b28e8884815181106120a257fe5b60200260200101518e60006121dd565b612130565b60008860028111156120c557fe5b1415612130578582815181106120d757fe5b60200260200101518383815181106120eb57fe5b602002602001015111156121305760405162461bcd60e51b815260040180806020018281038252603481526020018061261e6034913960400191505060405180910390fd5b50600101611f5f565b509a509a98505050505050505050565b6000600182511161215c5750600161046f565b815160005b818110156121d357600181015b828110156121ca5784818151811061218257fe5b60200260200101516001600160a01b031685838151811061219f57fe5b60200260200101516001600160a01b031614156121c2576000935050505061046f565b60010161216e565b50600101612161565b5060019392505050565b604080516001600160a01b0385811660208301528481168284015260608083018590528351808403909101815260808301938490526310acd06d60e01b9093528616916310acd06d916005919060840180835b815260200180602001828103825283818151815260200191508051906020019080838360005b8381101561226e578181015183820152602001612256565b50505050905090810190601f16801561229b5780820380516001836020036101000a031916815260200191505b509350505050600060405180830381600087803b1580156122bb57600080fd5b505af1158015611de9573d6000803e3d6000fd5b604080516001600160a01b0385811660208301528481168284015260608083018590528351808403909101815260808301938490526310acd06d60e01b9093528616916310acd06d91600791906084018083612230565b6000816001600160a01b03166370a08231846040518263ffffffff1660e01b815260040180826001600160a01b0316815260200191505060206040518083038186803b15801561237557600080fd5b505afa158015612389573d6000803e3d6000fd5b505050506040513d602081101561239f57600080fd5b50519392505050565b6000828211156123ff576040805162461bcd60e51b815260206004820152601e60248201527f536166654d6174683a207375627472616374696f6e206f766572666c6f770000604482015290519081900360640190fd5b5090039056fe5f5f70726550726f63657373436f493a204e6f6e2d72656365697661626c6520696e636f6d696e672061737365747265636569766543616c6c46726f6d436f6d7074726f6c6c65723a2046756e64206973206e6f74206163746976655f5f70726550726f63657373436f493a204475706c696361746520696e636f6d696e672061737365745f5f616464547261636b6564417373657473546f5661756c743a20556e737570706f727465642061737365747265636569766543616c6c46726f6d436f6d7074726f6c6c65723a20496e76616c6964205f616374696f6e49645f5f70726550726f63657373436f493a205370656e64206173736574732061727261797320756e657175616c7265636569766543616c6c46726f6d436f6d7074726f6c6c65723a20556e617574686f72697a65645f5f70726550726f63657373436f493a204475706c6963617465207370656e642061737365745f5f706f737450726f63657373436f493a20526563656976656420696e636f6d696e67206173736574206c657373207468616e2065787065637465644f6e6c79207468652046756e644465706c6f7965722063616e206d616b6520746869732063616c6c7265636569766543616c6c46726f6d436f6d7074726f6c6c65723a2046756e64206973206e6f742076616c69645f5f70726550726f63657373436f493a20496e636f6d696e67206173736574732061727261797320756e657175616c5f5f706f737450726f63657373436f493a205370656e7420616d6f756e742067726561746572207468616e206578706563746564a26469706673582212204670673265c56d3ac454e4f4c8246d868caeb6556bf9c14bcb0380534b18b33064736f6c634300060c0033",
  "devdoc": {
    "author": "Enzyme Council <security@enzyme.finance>",
    "details": "Any arbitrary adapter is allowed by default, so all participants must be aware of their fund's configuration, especially whether they use a policy that only allows official adapters. Owners and asset managers must also establish trust for any arbitrary adapters that they interact with.",
    "kind": "dev",
    "methods": {
      "activateForFund(bool)": {
        "details": "Unimplemented by default, may be overridden."
      },
      "deactivateForFund()": {
        "details": "Unimplemented by default, may be overridden."
      },
      "getFundDeployer()": {
        "returns": {
          "fundDeployer_": "The `FUND_DEPLOYER` variable value"
        }
      },
      "getOwner()": {
        "details": "Ownership is deferred to the owner of the FundDeployer contract",
        "returns": {
          "owner_": "The owner"
        }
      },
      "getPolicyManager()": {
        "returns": {
          "policyManager_": "The `POLICY_MANAGER` variable value"
        }
      },
      "getValueInterpreter()": {
        "returns": {
          "valueInterpreter_": "The `VALUE_INTERPRETER` variable value"
        }
      },
      "getVaultProxyForFund(address)": {
        "params": {
          "_comptrollerProxy": "The ComptrollerProxy of the fund"
        },
        "returns": {
          "vaultProxy_": "The VaultProxy of the fund"
        }
      },
      "receiveCallFromComptroller(address,uint256,bytes)": {
        "params": {
          "_actionId": "An ID representing the desired action",
          "_callArgs": "The encoded args for the action",
          "_caller": "The user who called for this action"
        }
      },
      "setConfigForFund(address,address,bytes)": {
        "params": {
          "_comptrollerProxy": "The ComptrollerProxy of the fund",
          "_vaultProxy": "The VaultProxy of the fund"
        }
      }
    },
    "title": "IntegrationManager",
    "version": 1
  },
  "userdoc": {
    "kind": "user",
    "methods": {
      "activateForFund(bool)": {
        "notice": "Allows extension to run logic during fund activation"
      },
      "deactivateForFund()": {
        "notice": "Allows extension to run logic during fund deactivation (destruct)"
      },
      "getFundDeployer()": {
        "notice": "Gets the `FUND_DEPLOYER` variable"
      },
      "getOwner()": {
        "notice": "Gets the owner of this contract"
      },
      "getPolicyManager()": {
        "notice": "Gets the `POLICY_MANAGER` variable"
      },
      "getValueInterpreter()": {
        "notice": "Gets the `VALUE_INTERPRETER` variable"
      },
      "getVaultProxyForFund(address)": {
        "notice": "Gets the verified VaultProxy for a given ComptrollerProxy"
      },
      "receiveCallFromComptroller(address,uint256,bytes)": {
        "notice": "Receives a dispatched `callOnExtension` from a fund's ComptrollerProxy"
      },
      "setConfigForFund(address,address,bytes)": {
        "notice": "Enables the IntegrationManager to be used by a fund"
      }
    },
    "notice": "Extension to handle DeFi integration actions for funds",
    "version": 1
  },
  "storageLayout": {
    "storage": [
      {
        "astId": 41927,
        "contract": "contracts/release/extensions/integration-manager/IntegrationManager.sol:IntegrationManager",
        "label": "comptrollerProxyToVaultProxy",
        "offset": 0,
        "slot": "0",
        "type": "t_mapping(t_address,t_address)"
      }
    ],
    "types": {
      "t_address": {
        "encoding": "inplace",
        "label": "address",
        "numberOfBytes": "20"
      },
      "t_mapping(t_address,t_address)": {
        "encoding": "mapping",
        "key": "t_address",
        "label": "mapping(address => address)",
        "numberOfBytes": "32",
        "value": "t_address"
      }
    }
  }
}