{
  "address": "0x4a11bedce98B99a831BB181E7376eC57359252bC",
  "abi": [
    {
      "inputs": [
        {
          "internalType": "address",
          "name": "_dispatcher",
          "type": "address"
        },
        {
          "internalType": "address",
          "name": "_mlnToken",
          "type": "address"
        }
      ],
      "stateMutability": "nonpayable",
      "type": "constructor"
    },
    {
      "anonymous": false,
      "inputs": [
        {
          "indexed": true,
          "internalType": "address",
          "name": "to",
          "type": "address"
        },
        {
          "indexed": false,
          "internalType": "uint256",
          "name": "amount",
          "type": "uint256"
        }
      ],
      "name": "MlnTokenBalanceWithdrawn",
      "type": "event"
    },
    {
      "anonymous": false,
      "inputs": [
        {
          "indexed": false,
          "internalType": "address",
          "name": "nextProtocolFeeReserveLib",
          "type": "address"
        }
      ],
      "name": "ProtocolFeeReserveLibSet",
      "type": "event"
    },
    {
      "anonymous": false,
      "inputs": [
        {
          "indexed": true,
          "internalType": "address",
          "name": "vaultProxy",
          "type": "address"
        },
        {
          "indexed": false,
          "internalType": "uint256",
          "name": "sharesAmount",
          "type": "uint256"
        },
        {
          "indexed": false,
          "internalType": "uint256",
          "name": "mlnValue",
          "type": "uint256"
        },
        {
          "indexed": false,
          "internalType": "uint256",
          "name": "mlnBurned",
          "type": "uint256"
        }
      ],
      "name": "SharesBoughtBack",
      "type": "event"
    },
    {
      "inputs": [
        {
          "internalType": "uint256",
          "name": "_sharesAmount",
          "type": "uint256"
        },
        {
          "internalType": "uint256",
          "name": "_mlnValue",
          "type": "uint256"
        },
        {
          "internalType": "uint256",
          "name": "",
          "type": "uint256"
        }
      ],
      "name": "buyBackSharesViaTrustedVaultProxy",
      "outputs": [
        {
          "internalType": "uint256",
          "name": "mlnAmountToBurn_",
          "type": "uint256"
        }
      ],
      "stateMutability": "nonpayable",
      "type": "function"
    },
    {
      "inputs": [],
      "name": "getDispatcher",
      "outputs": [
        {
          "internalType": "address",
          "name": "dispatcher_",
          "type": "address"
        }
      ],
      "stateMutability": "view",
      "type": "function"
    },
    {
      "inputs": [],
      "name": "getProtocolFeeReserveLib",
      "outputs": [
        {
          "internalType": "address",
          "name": "protocolFeeReserveLib_",
          "type": "address"
        }
      ],
      "stateMutability": "view",
      "type": "function"
    },
    {
      "inputs": [
        {
          "internalType": "address",
          "name": "_dispatcher",
          "type": "address"
        }
      ],
      "name": "init",
      "outputs": [],
      "stateMutability": "nonpayable",
      "type": "function"
    },
    {
      "inputs": [],
      "name": "proxiableUUID",
      "outputs": [
        {
          "internalType": "bytes32",
          "name": "uuid_",
          "type": "bytes32"
        }
      ],
      "stateMutability": "pure",
      "type": "function"
    },
    {
      "inputs": [
        {
          "internalType": "address",
          "name": "_nextProtocolFeeReserveLib",
          "type": "address"
        }
      ],
      "name": "setProtocolFeeReserveLib",
      "outputs": [],
      "stateMutability": "nonpayable",
      "type": "function"
    },
    {
      "inputs": [
        {
          "internalType": "address",
          "name": "_to",
          "type": "address"
        }
      ],
      "name": "withdrawMlnTokenBalanceTo",
      "outputs": [],
      "stateMutability": "nonpayable",
      "type": "function"
    }
  ],
  "transactionHash": "0x2a2e53e2526bc8063ef40f00d3a783ca31fb6d1fa6e09d1c177a68c9670a7dd9",
  "args": [
    "0xe1bB58c02740446c36ba62BEA67F444EA15e9933",
    "0x6cEeB8fec16F7276F57ACF70C14ecA6008d3DDD4"
  ],
  "numDeployments": 1,
  "solcInputHash": "ddc5045fde4ce39a48d0eb052f9d6752",
  "bytecode": "0x60c060405234801561001057600080fd5b50604051610bd5380380610bd58339818101604052604081101561003357600080fd5b5080516020909101516001600160601b0319606092831b8116608052911b1660a05260805160601c60a05160601c610b526100836000398061023452806102da5250806101675250610b526000f3fe608060405234801561001057600080fd5b506004361061007d5760003560e01c806396c45aec1161005b57806396c45aec146100ea578063b3e2546b14610113578063c75a882a14610137578063ebb3d5891461015d5761007d565b80630fe560e11461008257806319ab453c146100aa57806352d1902d146100d0575b600080fd5b6100a86004803603602081101561009857600080fd5b50356001600160a01b0316610165565b005b6100a8600480360360208110156100c057600080fd5b50356001600160a01b0316610344565b6100d861040b565b60408051918252519081900360200190f35b6100d86004803603606081101561010057600080fd5b508035906020810135906040013561042f565b61011b610496565b604080516001600160a01b039092168252519081900360200190f35b6100a86004803603602081101561014d57600080fd5b50356001600160a01b03166104bb565b61011b6105b5565b7f00000000000000000000000000000000000000000000000000000000000000006001600160a01b031663893d20e86040518163ffffffff1660e01b815260040160206040518083038186803b1580156101be57600080fd5b505afa1580156101d2573d6000803e3d6000fd5b505050506040513d60208110156101e857600080fd5b50516001600160a01b031633146102305760405162461bcd60e51b8152600401808060200182810382526025815260200180610ace6025913960400191505060405180910390fd5b60007f00000000000000000000000000000000000000000000000000000000000000006001600160a01b03166370a08231306040518263ffffffff1660e01b815260040180826001600160a01b0316815260200191505060206040518083038186803b15801561029f57600080fd5b505afa1580156102b3573d6000803e3d6000fd5b505050506040513d60208110156102c957600080fd5b505190506103016001600160a01b037f00000000000000000000000000000000000000000000000000000000000000001683836105c4565b6040805182815290516001600160a01b038416917fb79bbb417e9a7ebc4b32e4853d92b64a27a5b093815e17003aa67986dd28c941919081900360200190a25050565b600061034e6105b5565b6001600160a01b0316146103a9576040805162461bcd60e51b815260206004820152601f60248201527f696e69743a2050726f787920616c726561647920696e697469616c697a656400604482015290519081900360640190fd5b600080546001600160a01b0319166001600160a01b0383161790557f637d0ba5806b2c873952a12cd23e7cf28669dba115b2ded43df3d2d75c71e8c16103ed610496565b604080516001600160a01b039092168252519081900360200190a150565b7fbc966524590ce702cc9340e80d86ea9095afa6b8eecbb5d6213f57633223918190565b600061043c83600261061b565b90508061044b5750600061048f565b6040805185815260208101859052808201839052905133917f6b63e290827c0f9226da4ffa1b681a509f0764acfc1ab99503a4f55012ec3c19919081900360600190a25b9392505050565b7f360894a13ba1a3210667c828492db98dca3e2076cc3735a920a3ca505d382bbc5490565b6104c36105b5565b6001600160a01b031663893d20e86040518163ffffffff1660e01b815260040160206040518083038186803b1580156104fb57600080fd5b505afa15801561050f573d6000803e3d6000fd5b505050506040513d602081101561052557600080fd5b50516001600160a01b0316331461056d5760405162461bcd60e51b8152600401808060200182810382526030815260200180610a9e6030913960400191505060405180910390fd5b61057681610682565b604080516001600160a01b038316815290517f637d0ba5806b2c873952a12cd23e7cf28669dba115b2ded43df3d2d75c71e8c19181900360200190a150565b6000546001600160a01b031690565b604080516001600160a01b038416602482015260448082018490528251808303909101815260649091019091526020810180516001600160e01b031663a9059cbb60e01b17905261061690849061076b565b505050565b6000808211610671576040805162461bcd60e51b815260206004820152601a60248201527f536166654d6174683a206469766973696f6e206279207a65726f000000000000604482015290519081900360640190fd5b81838161067a57fe5b049392505050565b7fbc966524590ce702cc9340e80d86ea9095afa6b8eecbb5d6213f57633223918160001b816001600160a01b03166352d1902d6040518163ffffffff1660e01b815260040160206040518083038186803b1580156106df57600080fd5b505afa1580156106f3573d6000803e3d6000fd5b505050506040513d602081101561070957600080fd5b5051146107475760405162461bcd60e51b815260040180806020018281038252603e815260200180610a3a603e913960400191505060405180910390fd5b7f360894a13ba1a3210667c828492db98dca3e2076cc3735a920a3ca505d382bbc55565b60606107c0826040518060400160405280602081526020017f5361666545524332303a206c6f772d6c6576656c2063616c6c206661696c6564815250856001600160a01b031661081c9092919063ffffffff16565b805190915015610616578080602001905160208110156107df57600080fd5b50516106165760405162461bcd60e51b815260040180806020018281038252602a815260200180610af3602a913960400191505060405180910390fd5b606061082b8484600085610833565b949350505050565b6060824710156108745760405162461bcd60e51b8152600401808060200182810382526026815260200180610a786026913960400191505060405180910390fd5b61087d8561098f565b6108ce576040805162461bcd60e51b815260206004820152601d60248201527f416464726573733a2063616c6c20746f206e6f6e2d636f6e7472616374000000604482015290519081900360640190fd5b60006060866001600160a01b031685876040518082805190602001908083835b6020831061090d5780518252601f1990920191602091820191016108ee565b6001836020036101000a03801982511681845116808217855250505050505090500191505060006040518083038185875af1925050503d806000811461096f576040519150601f19603f3d011682016040523d82523d6000602084013e610974565b606091505b5091509150610984828286610995565b979650505050505050565b3b151590565b606083156109a457508161048f565b8251156109b45782518084602001fd5b8160405162461bcd60e51b81526004018080602001828103825283818151815260200191508051906020019080838360005b838110156109fe5781810151838201526020016109e6565b50505050905090810190601f168015610a2b5780820380516001836020036101000a031916815260200191505b509250505060405180910390fdfe5f5f757064617465436f6465416464726573733a205f6e65787450726f746f636f6c466565526573657276654c6962206e6f7420636f6d70617469626c65416464726573733a20696e73756666696369656e742062616c616e636520666f722063616c6c4f6e6c79207468652044697370617463686572206f776e65722063616e2063616c6c20746869732066756e6374696f6e77697468647261774d6c6e546f6b656e42616c616e63653a20556e617574686f72697a65645361666545524332303a204552433230206f7065726174696f6e20646964206e6f742073756363656564a2646970667358221220c10d33b951a6b91b9be574951ba881b146da8bbcba8f26b570ef15d24ea709b964736f6c634300060c0033",
  "devdoc": {
    "author": "Enzyme Council <security@enzyme.finance>",
    "kind": "dev",
    "methods": {
      "buyBackSharesViaTrustedVaultProxy(uint256,uint256,uint256)": {
        "details": "Since VaultProxy instances are completely trusted, all the work of calculating and burning the appropriate amount of shares and MLN can be done by the calling VaultProxy. This contract only needs to provide the discounted MLN amount to burn. Though it is currently unused, passing in GAV would allow creating a tiered system of discounts in a new library, for example.",
        "params": {
          "_mlnValue": "The MLN-denominated market value of _sharesAmount",
          "_sharesAmount": "The amount of shares to buy back"
        },
        "returns": {
          "mlnAmountToBurn_": "The amount of MLN to burn"
        }
      },
      "getDispatcher()": {
        "returns": {
          "dispatcher_": "The `dispatcher` variable value"
        }
      },
      "getProtocolFeeReserveLib()": {
        "returns": {
          "protocolFeeReserveLib_": "The address of the ProtocolFeeReserveLib target"
        }
      },
      "init(address)": {
        "details": "Serves as a pseudo-constructor",
        "params": {
          "_dispatcher": "The Dispatcher contract"
        }
      },
      "proxiableUUID()": {
        "returns": {
          "uuid_": "The bytes32 hash representing the UUID"
        }
      },
      "setProtocolFeeReserveLib(address)": {
        "details": "This function is absolutely critical. __updateCodeAddress() validates that the target is a valid Proxiable contract instance. Does not block _nextProtocolFeeReserveLib from being the same as the current ProtocolFeeReserveLib",
        "params": {
          "_nextProtocolFeeReserveLib": "The address to set as the ProtocolFeeReserveLib"
        }
      },
      "withdrawMlnTokenBalanceTo(address)": {
        "details": "Used in the case that MLN tokens are sent to this contract rather than being burned, which will be the case on networks where MLN does not implement a burn function in the desired manner. The Enzyme Council will periodically withdraw the MLN, bridge to Ethereum mainnet, and burn.",
        "params": {
          "_to": "The address to which to send the MLN token balance"
        }
      }
    },
    "title": "ProtocolFeeReserveLib Contract",
    "version": 1
  },
  "userdoc": {
    "kind": "user",
    "methods": {
      "buyBackSharesViaTrustedVaultProxy(uint256,uint256,uint256)": {
        "notice": "Indicates that the calling VaultProxy is buying back shares collected as protocol fee, and returns the amount of MLN that should be burned for the buyback"
      },
      "getDispatcher()": {
        "notice": "Gets the `dispatcher` variable"
      },
      "getProtocolFeeReserveLib()": {
        "notice": "Gets the ProtocolFeeReserveLib target for the ProtocolFeeReserveProxy"
      },
      "init(address)": {
        "notice": "Initializes the ProtocolFeeReserveProxy with core configuration"
      },
      "proxiableUUID()": {
        "notice": "Returns a unique bytes32 hash for ProtocolFeeReserveLib instances"
      },
      "setProtocolFeeReserveLib(address)": {
        "notice": "Sets the ProtocolFeeReserveLib target for the ProtocolFeeReserveProxy"
      },
      "withdrawMlnTokenBalanceTo(address)": {
        "notice": "Withdraws the full MLN token balance to the given address"
      }
    },
    "notice": "The proxiable library contract for ProtocolFeeReserveProxy",
    "version": 1
  },
  "storageLayout": {
    "storage": [
      {
        "astId": 7554,
        "contract": "contracts/persistent/protocol-fee-reserve/ProtocolFeeReserveLib.sol:ProtocolFeeReserveLib",
        "label": "dispatcher",
        "offset": 0,
        "slot": "0",
        "type": "t_address"
      }
    ],
    "types": {
      "t_address": {
        "encoding": "inplace",
        "label": "address",
        "numberOfBytes": "20"
      }
    }
  }
}