{
  "address": "0xCE102dB91C7d83b3B617583b9fe42e0DF499c38A",
  "abi": [
    {
      "inputs": [
        {
          "internalType": "address",
          "name": "_globalConfigProxy",
          "type": "address"
        }
      ],
      "stateMutability": "nonpayable",
      "type": "constructor"
    },
    {
      "anonymous": false,
      "inputs": [
        {
          "indexed": true,
          "internalType": "address",
          "name": "caller",
          "type": "address"
        },
        {
          "indexed": false,
          "internalType": "address",
          "name": "proxy",
          "type": "address"
        }
      ],
      "name": "ProxyDeployed",
      "type": "event"
    },
    {
      "inputs": [
        {
          "internalType": "address[]",
          "name": "_users",
          "type": "address[]"
        },
        {
          "internalType": "uint256[]",
          "name": "_splitPercentages",
          "type": "uint256[]"
        }
      ],
      "name": "deploy",
      "outputs": [
        {
          "internalType": "address",
          "name": "sharesSplitter_",
          "type": "address"
        }
      ],
      "stateMutability": "nonpayable",
      "type": "function"
    }
  ],
  "transactionHash": "0x9af12765a402a9d2c6471e093d4c273bd0fe8d927f899d8fec472c9a552592fe",
  "args": [
    "0x4080f0Ca3bf4cBeB4fF57A60120EC7A7Ad2C30c0"
  ],
  "numDeployments": 1,
  "solcInputHash": "ddc5045fde4ce39a48d0eb052f9d6752",
  "bytecode": "0x60a060405234801561001057600080fd5b5060405161192c38038061192c8339818101604052602081101561003357600080fd5b5051604051819030906100459061008f565b6001600160a01b03928316815291166020820152604080519182900301906000f080158015610078573d6000803e3d6000fd5b5060601b6001600160601b0319166080525061009c565b61120c8061072083390190565b60805160601c6106676100b96000398061020652506106676000f3fe608060405234801561001057600080fd5b506004361061002b5760003560e01c80634f62f4d114610030575b600080fd5b6100f26004803603604081101561004657600080fd5b81019060208101813564010000000081111561006157600080fd5b82018360208201111561007357600080fd5b8035906020019184602083028401116401000000008311171561009557600080fd5b9193909290916020810190356401000000008111156100b357600080fd5b8201836020820111156100c557600080fd5b803590602001918460208302840111640100000000831117156100e757600080fd5b50909250905061010e565b604080516001600160a01b039092168252519081900360200190f35b600083821461015d576040805162461bcd60e51b81526020600482015260166024820152756465706c6f793a20556e657175616c2061727261797360501b604482015290519081900360640190fd5b606063371aa15860e01b868686866040516024018080602001806020018381038352878782818152602001925060200280828437600083820152601f01601f1916909101848103835285815260209081019150869086028082843760008382015260408051601f909201601f1990811690940182810390940182529283526020810180516001600160e01b03166001600160e01b0319909c169b909b17909a52505197985088977f000000000000000000000000000000000000000000000000000000000000000097506102389650945061031b9350505050565b8080602001836001600160a01b03168152602001828103825284818151815260200191508051906020019080838360005b83811015610281578181015183820152602001610269565b50505050905090810190601f1680156102ae5780820380516001836020036101000a031916815260200191505b509350505050604051809103906000f0801580156102d0573d6000803e3d6000fd5b50604080516001600160a01b0383168152905191935033917f3d2489efb661e8b1c3679865db649ca1de61d76a71184a1234de2e55786a6aad9181900360200190a250949350505050565b610309806103298339019056fe60a060405234801561001057600080fd5b506040516103093803806103098339818101604052604081101561003357600080fd5b810190808051604051939291908464010000000082111561005357600080fd5b90830190602082018581111561006857600080fd5b825164010000000081118282018810171561008257600080fd5b82525081516020918201929091019080838360005b838110156100af578181015183820152602001610097565b50505050905090810190601f1680156100dc5780820380516001836020036101000a031916815260200191505b50604052602001805190602001909291905050508181806001600160a01b03166080816001600160a01b031660601b81525050807f360894a13ba1a3210667c828492db98dca3e2076cc3735a920a3ca505d382bbc5560006060826001600160a01b0316846040518082805190602001908083835b602083106101705780518252601f199092019160209182019101610151565b6001836020036101000a038019825116818451168082178552505050505050905001915050600060405180830381855af49150503d80600081146101d0576040519150601f19603f3d011682016040523d82523d6000602084013e6101d5565b606091505b50915091508181906102655760405162461bcd60e51b81526004018080602001828103825283818151815260200191508051906020019080838360005b8381101561022a578181015183820152602001610212565b50505050905090810190601f1680156102575780820380516001836020036101000a031916815260200191505b509250505060405180910390fd5b5050505050505060805160601c6083610286600039806006525060836000f3fe60806040527f00000000000000000000000000000000000000000000000000000000000000003660008037600080366000846127105a03f43d806000803e818015604857816000f35b816000fdfea26469706673582212202aac9097daff644cf6995e431d93cdb63b02afe3a40a5c08c90fb5e32cf6f26e64736f6c634300060c0033a264697066735822122010df34b1653213f4949435fad854c94c4a0305465ff7a36447fa5cc2e325522664736f6c634300060c003360c060405234801561001057600080fd5b5060405161120c38038061120c8339818101604052604081101561003357600080fd5b5080516020909101516001600160601b0319606092831b8116608052911b1660a05260805160601c60a05160601c61118e61007e6000398061035b5250806104e1525061118e6000f3fe608060405234801561001057600080fd5b50600436106100885760003560e01c8063418981821161005b57806341898182146101e55780638a3503fa14610213578063c91995a314610239578063cb482df6146102d957610088565b80630cffb1851461008d5780630f0ee54c146100c557806332f289cf146100fb578063371aa15814610121575b600080fd5b6100b3600480360360208110156100a357600080fd5b50356001600160a01b0316610307565b60408051918252519081900360200190f35b6100b3600480360360608110156100db57600080fd5b506001600160a01b03813581169160208101359160409091013516610322565b6100b36004803603602081101561011157600080fd5b50356001600160a01b031661033a565b6101e36004803603604081101561013757600080fd5b81019060208101813564010000000081111561015257600080fd5b82018360208201111561016457600080fd5b8035906020019184602083028401116401000000008311171561018657600080fd5b9193909290916020810190356401000000008111156101a457600080fd5b8201836020820111156101b657600080fd5b803590602001918460208302840111640100000000831117156101d857600080fd5b509092509050610350565b005b6100b3600480360360408110156101fb57600080fd5b506001600160a01b0381358116916020013516610435565b6100b36004803603602081101561022957600080fd5b50356001600160a01b0316610460565b6100b3600480360360a081101561024f57600080fd5b6001600160a01b0382358116926020810135926040820135909216916001600160e01b0319606083013516919081019060a08101608082013564010000000081111561029a57600080fd5b8201836020820111156102ac57600080fd5b803590602001918460018302840111640100000000831117156102ce57600080fd5b50909250905061047b565b6100b3600480360360408110156102ef57600080fd5b506001600160a01b03813581169160200135166107a1565b6001600160a01b031660009081526020819052604090205490565b600061033033858585610849565b90505b9392505050565b600061034a338360001933610849565b92915050565b336001600160a01b037f000000000000000000000000000000000000000000000000000000000000000016146103c2576040805162461bcd60e51b81526020600482015260126024820152711a5b9a5d0e88155b985d5d1a1bdc9a5e995960721b604482015290519081900360640190fd5b61042f8484808060200260200160405190810160405280939291908181526020018383602002808284376000920191909152505060408051602080880282810182019093528782529093508792508691829185019084908082843760009201919091525061087492505050565b50505050565b6001600160a01b03918216600090815260026020908152604080832093909416825291909152205490565b6001600160a01b031660009081526001602052604090205490565b6000610488338888610ae3565b9050600081116104df576040805162461bcd60e51b815260206004820152601f60248201527f72656465656d5368617265733a204e6f2073686172657320636c61696d656400604482015290519081900360640190fd5b7f00000000000000000000000000000000000000000000000000000000000000006001600160a01b0316635d4755dc8861aaaa84898989896040518863ffffffff1660e01b815260040180886001600160a01b03168152602001876001600160a01b03168152602001868152602001856001600160a01b03168152602001846001600160e01b0319168152602001806020018281038252848482818152602001925080828437600081840152601f19601f8201169050808301925050509850505050505050505060206040518083038186803b1580156105be57600080fd5b505afa1580156105d2573d6000803e3d6000fd5b505050506040513d60208110156105e857600080fd5b50516106255760405162461bcd60e51b81526004018080602001828103825260218152602001806110c86021913960400191505060405180910390fd5b60006060866001600160a01b031686868660405160200180846001600160e01b03191681526004018383808284378083019250505093505050506040516020818303038152906040526040518082805190602001908083835b6020831061069d5780518252601f19909201916020918201910161067e565b6001836020036101000a0380198251168184511680821785525050505050509050019150506000604051808303816000865af19150503d80600081146106ff576040519150601f19603f3d011682016040523d82523d6000602084013e610704565b606091505b50915091508181906107945760405162461bcd60e51b81526004018080602001828103825283818151815260200191508051906020019080838360005b83811015610759578181015183820152602001610741565b50505050905090810190601f1680156107865780820380516001836020036101000a031916815260200191505b509250505060405180910390fd5b5050509695505050505050565b60006103336107af84610460565b6107b98585610435565b610844856001600160a01b03166370a08231306040518263ffffffff1660e01b815260040180826001600160a01b0316815260200191505060206040518083038186803b15801561080957600080fd5b505afa15801561081d573d6000803e3d6000fd5b505050506040513d602081101561083357600080fd5b505161083e87610307565b90610c8d565b610ce7565b6000610856858585610ae3565b905061086c6001600160a01b0385168383610d15565b949350505050565b6000805b8351811015610a875760006001600160a01b031684828151811061089857fe5b60200260200101516001600160a01b031614156108fc576040805162461bcd60e51b815260206004820152601b60248201527f5f5f73657453706c6974526174696f3a20456d70747920757365720000000000604482015290519081900360640190fd5b600181015b845181101561099f5784818151811061091657fe5b60200260200101516001600160a01b031685838151811061093357fe5b60200260200101516001600160a01b03161415610997576040805162461bcd60e51b815260206004820152601f60248201527f5f5f73657453706c6974526174696f3a204475706c6963617465207573657200604482015290519081900360640190fd5b600101610901565b508281815181106109ac57fe5b6020026020010151600160008684815181106109c457fe5b60200260200101516001600160a01b03166001600160a01b0316815260200190815260200160002081905550610a168382815181106109ff57fe5b602002602001015183610c8d90919063ffffffff16565b9150838181518110610a2457fe5b60200260200101516001600160a01b03167f531137a286e6d7db4298ad238c8007a3e9f4d5c41c4550d1f22c1b6965103ecd848381518110610a6257fe5b60200260200101516040518082815260200191505060405180910390a2600101610878565b506127108114610ade576040805162461bcd60e51b815260206004820152601f60248201527f5f5f73657453706c6974526174696f3a2053706c6974206e6f74203130302500604482015290519081900360640190fd5b505050565b600080610aef84610307565b90506000610afd8686610435565b90506000610b84866001600160a01b03166370a08231306040518263ffffffff1660e01b815260040180826001600160a01b0316815260200191505060206040518083038186803b158015610b5157600080fd5b505afa158015610b65573d6000803e3d6000fd5b505050506040513d6020811015610b7b57600080fd5b50518490610c8d565b90506000610b9b610b9489610460565b8484610ce7565b9050600019861415610baf57809450610bf2565b80861115610bee5760405162461bcd60e51b81526004018080602001828103825260258152602001806111346025913960400191505060405180910390fd5b8594505b610bfc8486610c8d565b6001600160a01b038816600090815260208190526040902055610c1f8386610c8d565b6001600160a01b03808a166000818152600260209081526040808320948d16808452948252918290209490945580518981529051929391927f4831bdd9dcf3048a28319ce81d3cab7a15366bcf449bc7803a539107440809cc929181900390910190a3505050509392505050565b600082820183811015610333576040805162461bcd60e51b815260206004820152601b60248201527f536166654d6174683a206164646974696f6e206f766572666c6f770000000000604482015290519081900360640190fd5b600080610d00612710610cfa8588610d67565b90610dc0565b9050610d0c8185610e27565b95945050505050565b604080516001600160a01b038416602482015260448082018490528251808303909101815260649091019091526020810180516001600160e01b031663a9059cbb60e01b179052610ade908490610e84565b600082610d765750600061034a565b82820282848281610d8357fe5b04146103335760405162461bcd60e51b81526004018080602001828103825260218152602001806110e96021913960400191505060405180910390fd5b6000808211610e16576040805162461bcd60e51b815260206004820152601a60248201527f536166654d6174683a206469766973696f6e206279207a65726f000000000000604482015290519081900360640190fd5b818381610e1f57fe5b049392505050565b600082821115610e7e576040805162461bcd60e51b815260206004820152601e60248201527f536166654d6174683a207375627472616374696f6e206f766572666c6f770000604482015290519081900360640190fd5b50900390565b6060610ed9826040518060400160405280602081526020017f5361666545524332303a206c6f772d6c6576656c2063616c6c206661696c6564815250856001600160a01b0316610f359092919063ffffffff16565b805190915015610ade57808060200190516020811015610ef857600080fd5b5051610ade5760405162461bcd60e51b815260040180806020018281038252602a81526020018061110a602a913960400191505060405180910390fd5b6060610330848460008585610f498561105b565b610f9a576040805162461bcd60e51b815260206004820152601d60248201527f416464726573733a2063616c6c20746f206e6f6e2d636f6e7472616374000000604482015290519081900360640190fd5b60006060866001600160a01b031685876040518082805190602001908083835b60208310610fd95780518252601f199092019160209182019101610fba565b6001836020036101000a03801982511681845116808217855250505050505090500191505060006040518083038185875af1925050503d806000811461103b576040519150601f19603f3d011682016040523d82523d6000602084013e611040565b606091505b5091509150611050828286611061565b979650505050505050565b3b151590565b60608315611070575081610333565b8251156110805782518084602001fd5b60405162461bcd60e51b815260206004820181815284516024840152845185939192839260440191908501908083836000831561075957818101518382015260200161074156fe72656465656d5368617265733a20496e76616c69642072656465656d2063616c6c536166654d6174683a206d756c7469706c69636174696f6e206f766572666c6f775361666545524332303a204552433230206f7065726174696f6e20646964206e6f742073756363656564636c61696d546f6b656e3a205f616d6f756e74206578636565647320636c61696d61626c65a264697066735822122013672b759808f3d5f3ec059e5b5fe881ddb6d48761e6a61824cdb42f96bebafb64736f6c634300060c0033",
  "devdoc": {
    "author": "Enzyme Council <security@enzyme.finance>",
    "kind": "dev",
    "methods": {
      "deploy(address[],uint256[])": {
        "params": {
          "_splitPercentages": "The ordered split percentages corresponding to _users",
          "_users": "The users to give a split percentage"
        },
        "returns": {
          "sharesSplitter_": "The deployed SharesSplitterProxy address"
        }
      }
    },
    "title": "SharesSplitterFactory Contract",
    "version": 1
  },
  "userdoc": {
    "kind": "user",
    "methods": {
      "deploy(address[],uint256[])": {
        "notice": "Deploys a SharesSplitterProxy instance"
      }
    },
    "notice": "A contract factory for SharesSplitterProxy instances",
    "version": 1
  },
  "storageLayout": {
    "storage": [],
    "types": null
  }
}