{
  "address": "0x2D9caF49489B8Be0E0eF9f01C2d190C3B2e42998",
  "abi": [
    {
      "inputs": [
        {
          "internalType": "address",
          "name": "_fundDeployer",
          "type": "address"
        },
        {
          "internalType": "address",
          "name": "_wethToken",
          "type": "address"
        },
        {
          "internalType": "uint256",
          "name": "_chainlinkStaleRateThreshold",
          "type": "uint256"
        }
      ],
      "stateMutability": "nonpayable",
      "type": "constructor"
    },
    {
      "anonymous": false,
      "inputs": [
        {
          "indexed": true,
          "internalType": "address",
          "name": "derivative",
          "type": "address"
        },
        {
          "indexed": false,
          "internalType": "address",
          "name": "priceFeed",
          "type": "address"
        }
      ],
      "name": "DerivativeAdded",
      "type": "event"
    },
    {
      "anonymous": false,
      "inputs": [
        {
          "indexed": true,
          "internalType": "address",
          "name": "derivative",
          "type": "address"
        }
      ],
      "name": "DerivativeRemoved",
      "type": "event"
    },
    {
      "anonymous": false,
      "inputs": [
        {
          "indexed": false,
          "internalType": "address",
          "name": "prevEthUsdAggregator",
          "type": "address"
        },
        {
          "indexed": false,
          "internalType": "address",
          "name": "nextEthUsdAggregator",
          "type": "address"
        }
      ],
      "name": "EthUsdAggregatorSet",
      "type": "event"
    },
    {
      "anonymous": false,
      "inputs": [
        {
          "indexed": true,
          "internalType": "address",
          "name": "primitive",
          "type": "address"
        },
        {
          "indexed": false,
          "internalType": "address",
          "name": "aggregator",
          "type": "address"
        },
        {
          "indexed": false,
          "internalType": "enum ChainlinkPriceFeedMixin.RateAsset",
          "name": "rateAsset",
          "type": "uint8"
        },
        {
          "indexed": false,
          "internalType": "uint256",
          "name": "unit",
          "type": "uint256"
        }
      ],
      "name": "PrimitiveAdded",
      "type": "event"
    },
    {
      "anonymous": false,
      "inputs": [
        {
          "indexed": true,
          "internalType": "address",
          "name": "primitive",
          "type": "address"
        }
      ],
      "name": "PrimitiveRemoved",
      "type": "event"
    },
    {
      "inputs": [],
      "name": "STALE_RATE_THRESHOLD",
      "outputs": [
        {
          "internalType": "uint256",
          "name": "",
          "type": "uint256"
        }
      ],
      "stateMutability": "view",
      "type": "function"
    },
    {
      "inputs": [
        {
          "internalType": "address[]",
          "name": "_derivatives",
          "type": "address[]"
        },
        {
          "internalType": "address[]",
          "name": "_priceFeeds",
          "type": "address[]"
        }
      ],
      "name": "addDerivatives",
      "outputs": [],
      "stateMutability": "nonpayable",
      "type": "function"
    },
    {
      "inputs": [
        {
          "internalType": "address[]",
          "name": "_primitives",
          "type": "address[]"
        },
        {
          "internalType": "address[]",
          "name": "_aggregators",
          "type": "address[]"
        },
        {
          "internalType": "enum ChainlinkPriceFeedMixin.RateAsset[]",
          "name": "_rateAssets",
          "type": "uint8[]"
        }
      ],
      "name": "addPrimitives",
      "outputs": [],
      "stateMutability": "nonpayable",
      "type": "function"
    },
    {
      "inputs": [
        {
          "internalType": "address",
          "name": "_baseAsset",
          "type": "address"
        },
        {
          "internalType": "uint256",
          "name": "_amount",
          "type": "uint256"
        },
        {
          "internalType": "address",
          "name": "_quoteAsset",
          "type": "address"
        }
      ],
      "name": "calcCanonicalAssetValue",
      "outputs": [
        {
          "internalType": "uint256",
          "name": "value_",
          "type": "uint256"
        }
      ],
      "stateMutability": "nonpayable",
      "type": "function"
    },
    {
      "inputs": [
        {
          "internalType": "address[]",
          "name": "_baseAssets",
          "type": "address[]"
        },
        {
          "internalType": "uint256[]",
          "name": "_amounts",
          "type": "uint256[]"
        },
        {
          "internalType": "address",
          "name": "_quoteAsset",
          "type": "address"
        }
      ],
      "name": "calcCanonicalAssetsTotalValue",
      "outputs": [
        {
          "internalType": "uint256",
          "name": "value_",
          "type": "uint256"
        }
      ],
      "stateMutability": "nonpayable",
      "type": "function"
    },
    {
      "inputs": [
        {
          "internalType": "address",
          "name": "_primitive",
          "type": "address"
        }
      ],
      "name": "getAggregatorForPrimitive",
      "outputs": [
        {
          "internalType": "address",
          "name": "aggregator_",
          "type": "address"
        }
      ],
      "stateMutability": "view",
      "type": "function"
    },
    {
      "inputs": [],
      "name": "getEthUsdAggregator",
      "outputs": [
        {
          "internalType": "address",
          "name": "ethUsdAggregator_",
          "type": "address"
        }
      ],
      "stateMutability": "view",
      "type": "function"
    },
    {
      "inputs": [],
      "name": "getFundDeployer",
      "outputs": [
        {
          "internalType": "address",
          "name": "fundDeployer_",
          "type": "address"
        }
      ],
      "stateMutability": "view",
      "type": "function"
    },
    {
      "inputs": [],
      "name": "getOwner",
      "outputs": [
        {
          "internalType": "address",
          "name": "owner_",
          "type": "address"
        }
      ],
      "stateMutability": "view",
      "type": "function"
    },
    {
      "inputs": [
        {
          "internalType": "address",
          "name": "_derivative",
          "type": "address"
        }
      ],
      "name": "getPriceFeedForDerivative",
      "outputs": [
        {
          "internalType": "address",
          "name": "priceFeed_",
          "type": "address"
        }
      ],
      "stateMutability": "view",
      "type": "function"
    },
    {
      "inputs": [
        {
          "internalType": "address",
          "name": "_primitive",
          "type": "address"
        }
      ],
      "name": "getRateAssetForPrimitive",
      "outputs": [
        {
          "internalType": "enum ChainlinkPriceFeedMixin.RateAsset",
          "name": "rateAsset_",
          "type": "uint8"
        }
      ],
      "stateMutability": "view",
      "type": "function"
    },
    {
      "inputs": [],
      "name": "getStaleRateThreshold",
      "outputs": [
        {
          "internalType": "uint256",
          "name": "staleRateThreshold_",
          "type": "uint256"
        }
      ],
      "stateMutability": "view",
      "type": "function"
    },
    {
      "inputs": [
        {
          "internalType": "address",
          "name": "_primitive",
          "type": "address"
        }
      ],
      "name": "getUnitForPrimitive",
      "outputs": [
        {
          "internalType": "uint256",
          "name": "unit_",
          "type": "uint256"
        }
      ],
      "stateMutability": "view",
      "type": "function"
    },
    {
      "inputs": [],
      "name": "getWethToken",
      "outputs": [
        {
          "internalType": "address",
          "name": "wethToken_",
          "type": "address"
        }
      ],
      "stateMutability": "view",
      "type": "function"
    },
    {
      "inputs": [
        {
          "internalType": "address",
          "name": "_asset",
          "type": "address"
        }
      ],
      "name": "isSupportedAsset",
      "outputs": [
        {
          "internalType": "bool",
          "name": "isSupported_",
          "type": "bool"
        }
      ],
      "stateMutability": "view",
      "type": "function"
    },
    {
      "inputs": [
        {
          "internalType": "address",
          "name": "_asset",
          "type": "address"
        }
      ],
      "name": "isSupportedDerivativeAsset",
      "outputs": [
        {
          "internalType": "bool",
          "name": "isSupported_",
          "type": "bool"
        }
      ],
      "stateMutability": "view",
      "type": "function"
    },
    {
      "inputs": [
        {
          "internalType": "address",
          "name": "_asset",
          "type": "address"
        }
      ],
      "name": "isSupportedPrimitiveAsset",
      "outputs": [
        {
          "internalType": "bool",
          "name": "isSupported_",
          "type": "bool"
        }
      ],
      "stateMutability": "view",
      "type": "function"
    },
    {
      "inputs": [
        {
          "internalType": "address[]",
          "name": "_derivatives",
          "type": "address[]"
        }
      ],
      "name": "removeDerivatives",
      "outputs": [],
      "stateMutability": "nonpayable",
      "type": "function"
    },
    {
      "inputs": [
        {
          "internalType": "address[]",
          "name": "_primitives",
          "type": "address[]"
        }
      ],
      "name": "removePrimitives",
      "outputs": [],
      "stateMutability": "nonpayable",
      "type": "function"
    },
    {
      "inputs": [
        {
          "internalType": "address",
          "name": "_nextEthUsdAggregator",
          "type": "address"
        }
      ],
      "name": "setEthUsdAggregator",
      "outputs": [],
      "stateMutability": "nonpayable",
      "type": "function"
    },
    {
      "inputs": [
        {
          "internalType": "uint256",
          "name": "staleRateThreshold",
          "type": "uint256"
        }
      ],
      "name": "setStaleRateThreshold",
      "outputs": [],
      "stateMutability": "nonpayable",
      "type": "function"
    },
    {
      "inputs": [
        {
          "internalType": "address[]",
          "name": "_derivatives",
          "type": "address[]"
        },
        {
          "internalType": "address[]",
          "name": "_priceFeeds",
          "type": "address[]"
        }
      ],
      "name": "updateDerivatives",
      "outputs": [],
      "stateMutability": "nonpayable",
      "type": "function"
    },
    {
      "inputs": [
        {
          "internalType": "address[]",
          "name": "_primitives",
          "type": "address[]"
        },
        {
          "internalType": "address[]",
          "name": "_aggregators",
          "type": "address[]"
        },
        {
          "internalType": "enum ChainlinkPriceFeedMixin.RateAsset[]",
          "name": "_rateAssets",
          "type": "uint8[]"
        }
      ],
      "name": "updatePrimitives",
      "outputs": [],
      "stateMutability": "nonpayable",
      "type": "function"
    }
  ],
  "transactionHash": "0x029a3ce8c45a92e271b0263ad6debe4a8cadb45ea98414c2de5baa01c8984976",
  "args": [
    "0xd590Dc2e92ce061d941A7362F9DD92540679Ef8f",
    "0x6cEeB8fec16F7276F57ACF70C14ecA6008d3DDD4",
    90000
  ],
  "numDeployments": 1,
  "solcInputHash": "ddc5045fde4ce39a48d0eb052f9d6752",
  "bytecode": "0x60c06040523480156200001157600080fd5b5060405162002c0e38038062002c0e833981016040819052620000349162000079565b6001600160601b0319606093841b8116608052600191909155911b1660a05262000107565b80516200006681620000e2565b92915050565b80516200006681620000fc565b6000806000606084860312156200008f57600080fd5b60006200009d868662000059565b9350506020620000b08682870162000059565b9250506040620000c3868287016200006c565b9150509250925092565b60006001600160a01b03821662000066565b90565b620000ed81620000cd565b8114620000f957600080fd5b50565b620000ed81620000df565b60805160601c60a05160601c612ad862000136600039806103bf52508061056b52806106795250612ad86000f3fe608060405234801561001057600080fd5b506004361061014d5760003560e01c806397c0ac87116100c3578063b55433df1161007c578063b55433df14610290578063c496f8e814610298578063cf0399c8146102ab578063e106264f146102be578063e2dd0978146102d1578063e35e318e146102e45761014d565b806397c0ac87146102345780639be918e61461023c578063a98acadc1461024f578063ae6f52ad14610262578063b3d3af3b14610275578063b54fbdaa146102885761014d565b806368e81c6d1161011557806368e81c6d146101d85780636d3b9410146101eb57806374626f87146101fe578063787f256814610206578063893d20e8146102195780638f72b136146102215761014d565b806309157f951461015257806339cbb63c146101675780634c252f911461017a5780634c67e1061461019857806364b01dc1146101b8575b600080fd5b610165610160366004611e3f565b610304565b005b610165610175366004611c31565b610309565b6101826103bd565b60405161018f9190612775565b60405180910390f35b6101ab6101a6366004611ba3565b6103e1565b60405161018f91906129ad565b6101cb6101c6366004611b67565b610475565b60405161018f91906127e1565b6101826101e6366004611b67565b610494565b6101656101f9366004611c9f565b6104b2565b61018261050a565b6101ab610214366004611b67565b610519565b610182610567565b61016561022f366004611bf0565b6105ff565b610182610677565b6101cb61024a366004611b67565b61069b565b61016561025d366004611b67565b6106bb565b6101ab610270366004611da4565b6106ff565b610165610283366004611c31565b6107a5565b6101ab610819565b6101ab61081f565b6101cb6102a6366004611b67565b610825565b6101656102b9366004611c9f565b610854565b6101656102cc366004611bf0565b61088c565b6101826102df366004611b67565b6108ce565b6102f76102f2366004611b67565b6108ec565b60405161018f91906127ef565b600155565b610311610567565b6001600160a01b0316336001600160a01b03161461034a5760405162461bcd60e51b81526004016103419061282d565b60405180910390fd5b6103b78484808060200260200160405190810160405280939291908181526020018383602002808284376000920191909152505060408051602080880282810182019093528782529093508792508691829185019084908082843760009201919091525061093d92505050565b50505050565b7f000000000000000000000000000000000000000000000000000000000000000090565b6000816001600160a01b0316846001600160a01b03161480610401575082155b1561040d57508161046e565b61041682610825565b1561042d57610426848484610aca565b905061046e565b61043682610475565b8015610446575061044684610825565b1561045657610426848484610b57565b60405162461bcd60e51b81526004016103419061284d565b9392505050565b60008061048183610494565b6001600160a01b0316141590505b919050565b6001600160a01b039081166000908152602081905260409020541690565b6104ba610567565b6001600160a01b0316336001600160a01b0316146104ea5760405162461bcd60e51b81526004016103419061282d565b6104f48686610c31565b610502868686868686610d7d565b505050505050565b6002546001600160a01b031690565b60006105236103bd565b6001600160a01b0316826001600160a01b0316141561054b5750670de0b6b3a764000061048f565b506001600160a01b031660009081526004602052604090205490565b60007f00000000000000000000000000000000000000000000000000000000000000006001600160a01b031663893d20e86040518163ffffffff1660e01b815260040160206040518083038186803b1580156105c257600080fd5b505afa1580156105d6573d6000803e3d6000fd5b505050506040513d601f19601f820116820180604052508101906105fa9190611b85565b905090565b610607610567565b6001600160a01b0316336001600160a01b0316146106375760405162461bcd60e51b81526004016103419061282d565b6106738282808060200260200160405190810160405280939291908181526020018383602002808284376000920191909152506110a292505050565b5050565b7f000000000000000000000000000000000000000000000000000000000000000090565b60006106a682610825565b806106b557506106b582610475565b92915050565b6106c3610567565b6001600160a01b0316336001600160a01b0316146106f35760405162461bcd60e51b81526004016103419061282d565b6106fc8161118d565b50565b600082518451146107225760405162461bcd60e51b8152600401610341906128bd565b61072b82610825565b6107475760405162461bcd60e51b81526004016103419061280d565b60005b845181101561079d57600061078686838151811061076457fe5b602002602001015186848151811061077857fe5b602002602001015186610aca565b9050610792838261122d565b92505060010161074a565b509392505050565b6107ad610567565b6001600160a01b0316336001600160a01b0316146107dd5760405162461bcd60e51b81526004016103419061282d565b61034a8484808060200260200160405190810160405280939291908181526020018383602002808284376000920191909152506110a292505050565b60015490565b60015481565b600061082f6103bd565b6001600160a01b0316826001600160a01b031614806106b557506000610481836108ce565b61085c610567565b6001600160a01b0316336001600160a01b0316146104f45760405162461bcd60e51b81526004016103419061282d565b610894610567565b6001600160a01b0316336001600160a01b0316146108c45760405162461bcd60e51b81526004016103419061282d565b6106738282610c31565b6001600160a01b039081166000908152600360205260409020541690565b60006108f66103bd565b6001600160a01b0316826001600160a01b031614156109175750600061048f565b506001600160a01b0316600090815260036020526040902054600160a01b900460ff1690565b805182511461095e5760405162461bcd60e51b81526004016103419061297d565b60005b8251811015610ac55760006001600160a01b031661099184838151811061098457fe5b6020026020010151610494565b6001600160a01b0316146109b75760405162461bcd60e51b81526004016103419061290d565b6109e78382815181106109c657fe5b60200260200101518383815181106109da57fe5b6020026020010151611252565b8181815181106109f357fe5b6020026020010151600080858481518110610a0a57fe5b60200260200101516001600160a01b03166001600160a01b0316815260200190815260200160002060006101000a8154816001600160a01b0302191690836001600160a01b03160217905550828181518110610a6257fe5b60200260200101516001600160a01b03167faa4ae250fb435bb4b31ed0b95822bc179fc6c5dd0c727c3ffe08d444025efd98838381518110610aa057fe5b6020026020010151604051610ab59190612775565b60405180910390a2600101610961565b505050565b6000816001600160a01b0316846001600160a01b03161480610aea575082155b15610af657508161046e565b610aff84610825565b15610b0f576104268484846112ea565b6000610b1a85610494565b90506001600160a01b03811615610b3f57610b378186868661135c565b91505061046e565b60405162461bcd60e51b81526004016103419061296d565b600080826001600160a01b031663313ce5676040518163ffffffff1660e01b815260040160206040518083038186803b158015610b9357600080fd5b505afa158015610ba7573d6000803e3d6000fd5b505050506040513d601f19601f82011682018060405250810190610bcb9190611ed2565b60ff16600a0a90506000610bde84610494565b90506000610bee8286858a61135c565b90506127108111610c115760405162461bcd60e51b81526004016103419061298d565b610c26610c1f82600161122d565b848861148c565b979650505050505050565b60005b81811015610ac5576000610c62848484818110610c4d57fe5b90506020020160208101906102df9190611b67565b6001600160a01b03161415610c895760405162461bcd60e51b81526004016103419061292d565b60036000848484818110610c9957fe5b9050602002016020810190610cae9190611b67565b6001600160a01b031681526020810191909152604001600090812080546001600160a81b0319169055600490848484818110610ce657fe5b9050602002016020810190610cfb9190611b67565b6001600160a01b03166001600160a01b0316815260200190815260200160002060009055828282818110610d2b57fe5b9050602002016020810190610d409190611b67565b6001600160a01b03167fb100e8178a081ba9130260173ee2ebe0db3a6c3b6751a7801111ab3017df0e9760405160405180910390a2600101610c34565b848314610d9c5760405162461bcd60e51b81526004016103419061295d565b848114610dbb5760405162461bcd60e51b8152600401610341906128ad565b60005b85811015611099576000610dd7888884818110610c4d57fe5b6001600160a01b031614610dfd5760405162461bcd60e51b81526004016103419061299d565b610e26858583818110610e0c57fe5b9050602002016020810190610e219190611b67565b6114aa565b6040518060400160405280868684818110610e3d57fe5b9050602002016020810190610e529190611b67565b6001600160a01b03168152602001848484818110610e6c57fe5b9050602002016020810190610e819190611e21565b6001811115610e8c57fe5b905260036000898985818110610e9e57fe5b9050602002016020810190610eb39190611b67565b6001600160a01b0390811682526020808301939093526040909101600020835181546001600160a01b031916921691909117808255918301519091829060ff60a01b1916600160a01b836001811115610f0857fe5b02179055509050506000878783818110610f1e57fe5b9050602002016020810190610f339190611b67565b6001600160a01b031663313ce5676040518163ffffffff1660e01b815260040160206040518083038186803b158015610f6b57600080fd5b505afa158015610f7f573d6000803e3d6000fd5b505050506040513d601f19601f82011682018060405250810190610fa39190611ed2565b60ff16600a0a905080600460008a8a86818110610fbc57fe5b9050602002016020810190610fd19190611b67565b6001600160a01b03168152602081019190915260400160002055878783818110610ff757fe5b905060200201602081019061100c9190611b67565b6001600160a01b03167f742bdf00da3d8f16c0fab93ce38eb6a536a019c9e283888dd44c3a08c0148c0287878581811061104257fe5b90506020020160208101906110579190611b67565b86868681811061106357fe5b90506020020160208101906110789190611e21565b846040516110889392919061279e565b60405180910390a250600101610dbe565b50505050505050565b60005b81518110156106735760006001600160a01b03166110c883838151811061098457fe5b6001600160a01b031614156110ef5760405162461bcd60e51b8152600401610341906128cd565b6000808383815181106110fe57fe5b60200260200101516001600160a01b03166001600160a01b0316815260200190815260200160002060006101000a8154906001600160a01b03021916905581818151811061114857fe5b60200260200101516001600160a01b03167fc15eb25d807b570f4567baf6e97c7b26d58a7d0512dc85e8db15375a056b860460405160405180910390a26001016110a5565b600061119761050a565b9050806001600160a01b0316826001600160a01b031614156111cb5760405162461bcd60e51b8152600401610341906127fd565b6111d4826114aa565b600280546001600160a01b0319166001600160a01b0384161790556040517f98b60a60ba6130248e985ae4140dc3109d9c2980c7e435fed385e2756bc94461906112219083908590612783565b60405180910390a15050565b60008282018381101561046e5760405162461bcd60e51b81526004016103419061283d565b604051634df48c7360e11b81526001600160a01b03821690639be918e69061127e908590600401612775565b60206040518083038186803b15801561129657600080fd5b505afa1580156112aa573d6000803e3d6000fd5b505050506040513d601f19601f820116820180604052508101906112ce9190611e03565b6106735760405162461bcd60e51b81526004016103419061294d565b6000806112f68561154e565b9050600081136113185760405162461bcd60e51b8152600401610341906128ed565b60006113238461154e565b9050600081136113455760405162461bcd60e51b81526004016103419061291d565b6113528686848785611641565b9695505050505050565b6000606080866001600160a01b031663727212f687876040518363ffffffff1660e01b815260040161138f9291906127c6565b600060405180830381600087803b1580156113a957600080fd5b505af11580156113bd573d6000803e3d6000fd5b505050506040513d6000823e601f3d908101601f191682016040526113e59190810190611d3d565b91509150600082511161140a5760405162461bcd60e51b8152600401610341906128dd565b805182511461142b5760405162461bcd60e51b81526004016103419061286d565b60005b825181101561148157600061146a84838151811061144857fe5b602002602001015184848151811061145c57fe5b602002602001015188610aca565b9050611476858261122d565b94505060010161142e565b505050949350505050565b60006114a28461149c84866117a6565b906117e0565b949350505050565b600080826001600160a01b031663feaf968c6040518163ffffffff1660e01b815260040160a06040518083038186803b1580156114e657600080fd5b505afa1580156114fa573d6000803e3d6000fd5b505050506040513d601f19601f8201168201806040525081019061151e9190611e5d565b50935050925050600082136115455760405162461bcd60e51b81526004016103419061293d565b610ac581611812565b60006115586103bd565b6001600160a01b0316826001600160a01b031614156115805750670de0b6b3a764000061048f565b600061158b836108ce565b90506001600160a01b0381166115b35760405162461bcd60e51b81526004016103419061281d565b6000816001600160a01b031663feaf968c6040518163ffffffff1660e01b815260040160a06040518083038186803b1580156115ee57600080fd5b505afa158015611602573d6000803e3d6000fd5b505050506040513d601f19601f820116820180604052508101906116269190611e5d565b5091955090925061163a9150829050611812565b5050919050565b60008061164d876108ec565b9050600061165a856108ec565b9050600061166789610519565b9050600061167487610519565b905082600181111561168257fe5b84600181111561168e57fe5b14156116ac576116a189838a848a611843565b94505050505061179d565b6000806116b761050a565b6001600160a01b031663feaf968c6040518163ffffffff1660e01b815260040160a06040518083038186803b1580156116ef57600080fd5b505afa158015611703573d6000803e3d6000fd5b505050506040513d601f19601f820116820180604052508101906117279190611e5d565b509350509250506000821361174e5760405162461bcd60e51b81526004016103419061288d565b61175781611812565b600086600181111561176557fe5b1415611786576117798b858c868c87611866565b965050505050505061179d565b6117948b858c868c876118a1565b96505050505050505b95945050505050565b6000826117b5575060006106b5565b828202828482816117c257fe5b041461046e5760405162461bcd60e51b8152600401610341906128fd565b60008082116118015760405162461bcd60e51b81526004016103419061287d565b81838161180a57fe5b049392505050565b61182461181d610819565b42906118d0565b8110156106fc5760405162461bcd60e51b81526004016103419061289d565b600061135261185286846117a6565b61149c856118608a896117a6565b906117a6565b600080611883670de0b6b3a764000061149c856118608c8b6117a6565b90506118958461149c8981858a6117a6565b98975050505050505050565b6000806118b68361149c876118608c8b6117a6565b90506118958461149c898185670de0b6b3a76400006117a6565b6000828211156118f25760405162461bcd60e51b81526004016103419061285d565b50900390565b80356106b581612a5d565b80516106b581612a5d565b60008083601f84011261192057600080fd5b5081356001600160401b0381111561193757600080fd5b60208301915083602082028301111561194f57600080fd5b9250929050565b600082601f83011261196757600080fd5b813561197a611975826129e1565b6129bb565b9150818183526020840193506020810190508385602084028201111561199f57600080fd5b60005b838110156119cb57816119b588826118f8565b84525060209283019291909101906001016119a2565b5050505092915050565b600082601f8301126119e657600080fd5b81516119f4611975826129e1565b91508181835260208401935060208101905083856020840282011115611a1957600080fd5b60005b838110156119cb5781611a2f8882611903565b8452506020928301929190910190600101611a1c565b600082601f830112611a5657600080fd5b8135611a64611975826129e1565b91508181835260208401935060208101905083856020840282011115611a8957600080fd5b60005b838110156119cb5781611a9f8882611b46565b8452506020928301929190910190600101611a8c565b600082601f830112611ac657600080fd5b8151611ad4611975826129e1565b91508181835260208401935060208101905083856020840282011115611af957600080fd5b60005b838110156119cb5781611b0f8882611b3b565b8452506020928301929190910190600101611afc565b80516106b581612a71565b80356106b581612a7a565b80516106b581612a87565b80356106b581612a87565b80516106b581612a99565b80516106b581612a90565b600060208284031215611b7957600080fd5b60006114a284846118f8565b600060208284031215611b9757600080fd5b60006114a28484611903565b600080600060608486031215611bb857600080fd5b6000611bc486866118f8565b9350506020611bd586828701611b46565b9250506040611be6868287016118f8565b9150509250925092565b60008060208385031215611c0357600080fd5b82356001600160401b03811115611c1957600080fd5b611c258582860161190e565b92509250509250929050565b60008060008060408587031215611c4757600080fd5b84356001600160401b03811115611c5d57600080fd5b611c698782880161190e565b945094505060208501356001600160401b03811115611c8757600080fd5b611c938782880161190e565b95989497509550505050565b60008060008060008060608789031215611cb857600080fd5b86356001600160401b03811115611cce57600080fd5b611cda89828a0161190e565b965096505060208701356001600160401b03811115611cf857600080fd5b611d0489828a0161190e565b945094505060408701356001600160401b03811115611d2257600080fd5b611d2e89828a0161190e565b92509250509295509295509295565b60008060408385031215611d5057600080fd5b82516001600160401b03811115611d6657600080fd5b611d72858286016119d5565b92505060208301516001600160401b03811115611d8e57600080fd5b611d9a85828601611ab5565b9150509250929050565b600080600060608486031215611db957600080fd5b83356001600160401b03811115611dcf57600080fd5b611ddb86828701611956565b93505060208401356001600160401b03811115611df757600080fd5b611bd586828701611a45565b600060208284031215611e1557600080fd5b60006114a28484611b25565b600060208284031215611e3357600080fd5b60006114a28484611b30565b600060208284031215611e5157600080fd5b60006114a28484611b46565b600080600080600060a08688031215611e7557600080fd5b6000611e818888611b51565b9550506020611e9288828901611b3b565b9450506040611ea388828901611b3b565b9350506060611eb488828901611b3b565b9250506080611ec588828901611b51565b9150509295509295909350565b600060208284031215611ee457600080fd5b60006114a28484611b5c565b611ef981612a0a565b82525050565b611ef981612a15565b611ef981612a48565b6000611f1e602883612a01565b7f5f5f73657445746855736441676772656761746f723a2056616c756520616c728152671958591e481cd95d60c21b602082015260400192915050565b6000611f68603683612a01565b7f63616c6343616e6f6e6963616c417373657473546f74616c56616c75653a20558152751b9cdd5c1c1bdc9d19590817dc5d5bdd19505cdcd95d60521b602082015260400192915050565b6000611fc0602d83612a01565b7f5f5f6765744c617465737452617465446174613a205072696d6974697665206481526c1bd95cc81b9bdd08195e1a5cdd609a1b602082015260400192915050565b600061200f604983612a01565b7f6f6e6c7946756e644465706c6f7965724f776e65723a204f6e6c79207468652081527f46756e644465706c6f796572206f776e65722063616e2063616c6c207468697360208201526810333ab731ba34b7b760b91b604082015260600192915050565b6000612080601b83612a01565b7f536166654d6174683a206164646974696f6e206f766572666c6f770000000000815260200192915050565b60006120b9602f83612a01565b7f63616c6343616e6f6e6963616c417373657456616c75653a20556e737570706f81526e393a32b21031b7b73b32b939b4b7b760891b602082015260400192915050565b600061210a601e83612a01565b7f536166654d6174683a207375627472616374696f6e206f766572666c6f770000815260200192915050565b6000612143602d83612a01565b7f5f5f63616c634465726976617469766556616c75653a2041727261797320756e81526c657175616c206c656e6774687360981b602082015260400192915050565b6000612192601a83612a01565b7f536166654d6174683a206469766973696f6e206279207a65726f000000000000815260200192915050565b60006121cb602783612a01565b7f5f5f63616c63436f6e76657273696f6e416d6f756e743a2042616420657468558152667364207261746560c81b602082015260400192915050565b6000612214602d83612a01565b7f5f5f76616c69646174655261746549734e6f745374616c653a205374616c652081526c1c985d194819195d1958dd1959609a1b602082015260400192915050565b6000612263604283612a01565b7f5f5f6164645072696d6974697665733a20556e657175616c205f7072696d697481527f6976657320616e64205f72617465417373657473206172726179206c656e6774602082015261687360f01b604082015260600192915050565b60006122cd603583612a01565b7f63616c6343616e6f6e6963616c417373657473546f74616c56616c75653a2041815274727261797320756e657175616c206c656e6774687360581b602082015260400192915050565b6000612324602b83612a01565b7f72656d6f766544657269766174697665733a2044657269766174697665206e6f81526a1d081e595d08185919195960aa1b602082015260400192915050565b6000612371602583612a01565b7f5f5f63616c634465726976617469766556616c75653a204e6f20756e6465726c81526479696e677360d81b602082015260400192915050565b60006123b8602d83612a01565b7f5f5f63616c6343616e6f6e6963616c56616c75653a20496e76616c696420626181526c7365206173736574207261746560981b602082015260400192915050565b6000612407602183612a01565b7f536166654d6174683a206d756c7469706c69636174696f6e206f766572666c6f8152607760f81b602082015260400192915050565b600061244a601f83612a01565b7f5f5f61646444657269766174697665733a20416c726561647920616464656400815260200192915050565b6000612483602e83612a01565b7f5f5f63616c6343616e6f6e6963616c56616c75653a20496e76616c696420717581526d6f7465206173736574207261746560901b602082015260400192915050565b60006124d3602b83612a01565b7f5f5f72656d6f76655072696d6974697665733a205072696d6974697665206e6f81526a1d081e595d08185919195960aa1b602082015260400192915050565b6000612520602683612a01565b7f5f5f76616c696461746541676772656761746f723a204e6f20726174652064658152651d1958dd195960d21b602082015260400192915050565b6000612568603583612a01565b7f5f5f76616c6964617465446572697661746976655072696365466565643a20558152746e737570706f72746564206465726976617469766560581b602082015260400192915050565b60006125bf604383612a01565b7f5f5f6164645072696d6974697665733a20556e657175616c205f7072696d697481527f6976657320616e64205f61676772656761746f7273206172726179206c656e6760208201526274687360e81b604082015260600192915050565b600061262a602883612a01565b7f5f5f63616c63417373657456616c75653a20556e737570706f72746564205f62815267185cd9505cdcd95d60c21b602082015260400192915050565b6000612674604483612a01565b7f5f5f61646444657269766174697665733a20556e657175616c205f646572697681527f61746976657320616e64205f70726963654665656473206172726179206c656e6020820152636774687360e01b604082015260600192915050565b60006126e0603383612a01565b7f5f5f63616c635072696d6974697665546f4465726976617469766556616c75658152723a20496e73756666696369656e74207261746560681b602082015260400192915050565b6000612735602283612a01565b7f5f5f6164645072696d6974697665733a2056616c756520616c72656164792073815261195d60f21b602082015260400192915050565b611ef981612a24565b602081016106b58284611ef0565b604081016127918285611ef0565b61046e6020830184611ef0565b606081016127ac8286611ef0565b6127b96020830185611f08565b6114a2604083018461276c565b604081016127d48285611ef0565b61046e602083018461276c565b602081016106b58284611eff565b602081016106b58284611f08565b602080825281016106b581611f11565b602080825281016106b581611f5b565b602080825281016106b581611fb3565b602080825281016106b581612002565b602080825281016106b581612073565b602080825281016106b5816120ac565b602080825281016106b5816120fd565b602080825281016106b581612136565b602080825281016106b581612185565b602080825281016106b5816121be565b602080825281016106b581612207565b602080825281016106b581612256565b602080825281016106b5816122c0565b602080825281016106b581612317565b602080825281016106b581612364565b602080825281016106b5816123ab565b602080825281016106b5816123fa565b602080825281016106b58161243d565b602080825281016106b581612476565b602080825281016106b5816124c6565b602080825281016106b581612513565b602080825281016106b58161255b565b602080825281016106b5816125b2565b602080825281016106b58161261d565b602080825281016106b581612667565b602080825281016106b5816126d3565b602080825281016106b581612728565b602081016106b5828461276c565b6040518181016001600160401b03811182821017156129d957600080fd5b604052919050565b60006001600160401b038211156129f757600080fd5b5060209081020190565b90815260200190565b60006106b582612a27565b151590565b8061048f81612a53565b90565b6001600160a01b031690565b60ff1690565b69ffffffffffffffffffff1690565b60006106b582612a1a565b600281106106fc57fe5b612a6681612a0a565b81146106fc57600080fd5b612a6681612a15565b600281106106fc57600080fd5b612a6681612a24565b612a6681612a33565b612a6681612a3956fea26469706673582212209146e77184153fe6dbe57927095e86e7c9f0b9b483b9ac619af411f8ef74afbf64736f6c634300060c0033",
  "devdoc": {
    "author": "Enzyme Council <security@enzyme.finance>",
    "kind": "dev",
    "methods": {
      "addDerivatives(address[],address[])": {
        "params": {
          "_derivatives": "The derivatives to add",
          "_priceFeeds": "The ordered price feeds corresponding to the list of _derivatives"
        }
      },
      "addPrimitives(address[],address[],uint8[])": {
        "params": {
          "_aggregators": "The ordered aggregators corresponding to the list of _primitives",
          "_primitives": "The primitives to add",
          "_rateAssets": "The ordered rate assets corresponding to the list of _primitives"
        }
      },
      "calcCanonicalAssetValue(address,uint256,address)": {
        "details": "Does not alter protocol state, but not a view because calls to price feeds can potentially update third party state. See also __calcPrimitiveToDerivativeValue() for important notes regarding a derivative _quoteAsset.",
        "params": {
          "_amount": "The amount of the _baseAsset to convert",
          "_baseAsset": "The asset from which to convert",
          "_quoteAsset": "The asset to which to convert"
        },
        "returns": {
          "value_": "The equivalent quantity in the _quoteAsset"
        }
      },
      "calcCanonicalAssetsTotalValue(address[],uint256[],address)": {
        "details": "Does not alter protocol state, but not a view because calls to price feeds can potentially update third party state. Does not handle a derivative quote asset.",
        "params": {
          "_amounts": "The amounts of the _baseAssets to convert",
          "_baseAssets": "The assets to convert",
          "_quoteAsset": "The asset to which to convert"
        },
        "returns": {
          "value_": "The sum value of _baseAssets, denominated in the _quoteAsset"
        }
      },
      "getAggregatorForPrimitive(address)": {
        "params": {
          "_primitive": "The primitive asset for which to get the aggregator value"
        },
        "returns": {
          "aggregator_": "The aggregator address"
        }
      },
      "getEthUsdAggregator()": {
        "returns": {
          "ethUsdAggregator_": "The `ethUsdAggregator` variable value"
        }
      },
      "getFundDeployer()": {
        "returns": {
          "fundDeployer_": "The `FUND_DEPLOYER` variable value"
        }
      },
      "getOwner()": {
        "details": "Ownership is deferred to the owner of the FundDeployer contract",
        "returns": {
          "owner_": "The owner"
        }
      },
      "getPriceFeedForDerivative(address)": {
        "returns": {
          "priceFeed_": "The price feed contract address"
        }
      },
      "getRateAssetForPrimitive(address)": {
        "details": "This isn't strictly necessary as WETH_TOKEN will be undefined and thus the RateAsset will be the 0-position of the enum (i.e. ETH), but it makes the behavior more explicit",
        "returns": {
          "rateAsset_": "The rateAsset variable value"
        }
      },
      "getStaleRateThreshold()": {
        "returns": {
          "staleRateThreshold_": "The `STALE_RATE_THRESHOLD` value"
        }
      },
      "getUnitForPrimitive(address)": {
        "returns": {
          "unit_": "The unit variable value"
        }
      },
      "getWethToken()": {
        "returns": {
          "wethToken_": "The `WETH_TOKEN` variable value"
        }
      },
      "isSupportedAsset(address)": {
        "params": {
          "_asset": "The asset to check"
        },
        "returns": {
          "isSupported_": "True if the asset is a supported asset"
        }
      },
      "isSupportedDerivativeAsset(address)": {
        "params": {
          "_asset": "The asset to check"
        },
        "returns": {
          "isSupported_": "True if the asset is a supported derivative"
        }
      },
      "isSupportedPrimitiveAsset(address)": {
        "params": {
          "_asset": "The asset to check"
        },
        "returns": {
          "isSupported_": "True if the asset is a supported primitive"
        }
      },
      "removeDerivatives(address[])": {
        "params": {
          "_derivatives": "The derivatives to remove"
        }
      },
      "removePrimitives(address[])": {
        "params": {
          "_primitives": "The primitives to remove"
        }
      },
      "setEthUsdAggregator(address)": {
        "params": {
          "_nextEthUsdAggregator": "The `ehUsdAggregator` value to set"
        }
      },
      "updateDerivatives(address[],address[])": {
        "params": {
          "_derivatives": "The derivatives to update",
          "_priceFeeds": "The ordered price feeds corresponding to the list of _derivatives"
        }
      },
      "updatePrimitives(address[],address[],uint8[])": {
        "params": {
          "_aggregators": "The ordered aggregators corresponding to the list of _primitives",
          "_primitives": "The primitives to update",
          "_rateAssets": "The ordered rate assets corresponding to the list of _primitives"
        }
      }
    },
    "title": "ValueInterpreter Contract",
    "version": 1
  },
  "userdoc": {
    "kind": "user",
    "methods": {
      "addDerivatives(address[],address[])": {
        "notice": "Adds a list of derivatives with the given price feed values"
      },
      "addPrimitives(address[],address[],uint8[])": {
        "notice": "Adds a list of primitives with the given aggregator and rateAsset values"
      },
      "calcCanonicalAssetValue(address,uint256,address)": {
        "notice": "Calculates the value of a given amount of one asset in terms of another asset"
      },
      "calcCanonicalAssetsTotalValue(address[],uint256[],address)": {
        "notice": "Calculates the total value of given amounts of assets in a single quote asset"
      },
      "getAggregatorForPrimitive(address)": {
        "notice": "Gets the aggregator for a primitive"
      },
      "getEthUsdAggregator()": {
        "notice": "Gets the `ethUsdAggregator` variable value"
      },
      "getFundDeployer()": {
        "notice": "Gets the `FUND_DEPLOYER` variable"
      },
      "getOwner()": {
        "notice": "Gets the owner of this contract"
      },
      "getPriceFeedForDerivative(address)": {
        "notice": "Gets the registered price feed for a given derivative"
      },
      "getRateAssetForPrimitive(address)": {
        "notice": "Gets the rateAsset variable value for a primitive"
      },
      "getStaleRateThreshold()": {
        "notice": "Gets the `STALE_RATE_THRESHOLD` variable value"
      },
      "getUnitForPrimitive(address)": {
        "notice": "Gets the unit variable value for a primitive"
      },
      "getWethToken()": {
        "notice": "Gets the `WETH_TOKEN` variable value"
      },
      "isSupportedAsset(address)": {
        "notice": "Checks whether an asset is a supported asset"
      },
      "isSupportedDerivativeAsset(address)": {
        "notice": "Checks whether an asset is a supported derivative"
      },
      "isSupportedPrimitiveAsset(address)": {
        "notice": "Checks whether an asset is a supported primitive"
      },
      "removeDerivatives(address[])": {
        "notice": "Removes a list of derivatives"
      },
      "removePrimitives(address[])": {
        "notice": "Removes a list of primitives from the feed"
      },
      "setEthUsdAggregator(address)": {
        "notice": "Sets the `ehUsdAggregator` variable value"
      },
      "updateDerivatives(address[],address[])": {
        "notice": "Updates a list of derivatives with the given price feed values"
      },
      "updatePrimitives(address[],address[],uint8[])": {
        "notice": "Updates a list of primitives with the given aggregator and rateAsset values"
      }
    },
    "notice": "Interprets price feeds to provide covert value between asset pairs",
    "version": 1
  },
  "storageLayout": {
    "storage": [
      {
        "astId": 43159,
        "contract": "contracts/release/infrastructure/value-interpreter/ValueInterpreter.sol:ValueInterpreter",
        "label": "derivativeToPriceFeed",
        "offset": 0,
        "slot": "0",
        "type": "t_mapping(t_address,t_address)"
      },
      {
        "astId": 46724,
        "contract": "contracts/release/infrastructure/value-interpreter/ValueInterpreter.sol:ValueInterpreter",
        "label": "STALE_RATE_THRESHOLD",
        "offset": 0,
        "slot": "1",
        "type": "t_uint256"
      },
      {
        "astId": 46728,
        "contract": "contracts/release/infrastructure/value-interpreter/ValueInterpreter.sol:ValueInterpreter",
        "label": "ethUsdAggregator",
        "offset": 0,
        "slot": "2",
        "type": "t_address"
      },
      {
        "astId": 46732,
        "contract": "contracts/release/infrastructure/value-interpreter/ValueInterpreter.sol:ValueInterpreter",
        "label": "primitiveToAggregatorInfo",
        "offset": 0,
        "slot": "3",
        "type": "t_mapping(t_address,t_struct(AggregatorInfo)46717_storage)"
      },
      {
        "astId": 46736,
        "contract": "contracts/release/infrastructure/value-interpreter/ValueInterpreter.sol:ValueInterpreter",
        "label": "primitiveToUnit",
        "offset": 0,
        "slot": "4",
        "type": "t_mapping(t_address,t_uint256)"
      }
    ],
    "types": {
      "t_address": {
        "encoding": "inplace",
        "label": "address",
        "numberOfBytes": "20"
      },
      "t_enum(RateAsset)46712": {
        "encoding": "inplace",
        "label": "enum ChainlinkPriceFeedMixin.RateAsset",
        "numberOfBytes": "1"
      },
      "t_mapping(t_address,t_address)": {
        "encoding": "mapping",
        "key": "t_address",
        "label": "mapping(address => address)",
        "numberOfBytes": "32",
        "value": "t_address"
      },
      "t_mapping(t_address,t_struct(AggregatorInfo)46717_storage)": {
        "encoding": "mapping",
        "key": "t_address",
        "label": "mapping(address => struct ChainlinkPriceFeedMixin.AggregatorInfo)",
        "numberOfBytes": "32",
        "value": "t_struct(AggregatorInfo)46717_storage"
      },
      "t_mapping(t_address,t_uint256)": {
        "encoding": "mapping",
        "key": "t_address",
        "label": "mapping(address => uint256)",
        "numberOfBytes": "32",
        "value": "t_uint256"
      },
      "t_struct(AggregatorInfo)46717_storage": {
        "encoding": "inplace",
        "label": "struct ChainlinkPriceFeedMixin.AggregatorInfo",
        "members": [
          {
            "astId": 46714,
            "contract": "contracts/release/infrastructure/value-interpreter/ValueInterpreter.sol:ValueInterpreter",
            "label": "aggregator",
            "offset": 0,
            "slot": "0",
            "type": "t_address"
          },
          {
            "astId": 46716,
            "contract": "contracts/release/infrastructure/value-interpreter/ValueInterpreter.sol:ValueInterpreter",
            "label": "rateAsset",
            "offset": 20,
            "slot": "0",
            "type": "t_enum(RateAsset)46712"
          }
        ],
        "numberOfBytes": "32"
      },
      "t_uint256": {
        "encoding": "inplace",
        "label": "uint256",
        "numberOfBytes": "32"
      }
    }
  }
}